{
	"AncestorContract.sol": {
		"myContract": {
			"abi": [
				{
					"inputs": [],
					"stateMutability": "nonpayable",
					"type": "constructor"
				},
				{
					"anonymous": false,
					"inputs": [
						{
							"indexed": false,
							"internalType": "address",
							"name": "addr",
							"type": "address"
						},
						{
							"indexed": false,
							"internalType": "uint256",
							"name": "amount",
							"type": "uint256"
						},
						{
							"indexed": false,
							"internalType": "uint256",
							"name": "balance",
							"type": "uint256"
						}
					],
					"name": "LogKidsFunding",
					"type": "event"
				},
				{
					"inputs": [
						{
							"internalType": "address payable",
							"name": "walletAddress",
							"type": "address"
						},
						{
							"internalType": "string",
							"name": "firstname",
							"type": "string"
						},
						{
							"internalType": "string",
							"name": "lastname",
							"type": "string"
						},
						{
							"internalType": "uint256",
							"name": "releaseTime",
							"type": "uint256"
						},
						{
							"internalType": "uint256",
							"name": "amount",
							"type": "uint256"
						},
						{
							"internalType": "bool",
							"name": "canwithdraw",
							"type": "bool"
						}
					],
					"name": "addKid",
					"outputs": [],
					"stateMutability": "nonpayable",
					"type": "function"
				},
				{
					"inputs": [
						{
							"internalType": "address",
							"name": "walletAddress",
							"type": "address"
						}
					],
					"name": "avaliableToWithdraw",
					"outputs": [
						{
							"internalType": "bool",
							"name": "",
							"type": "bool"
						}
					],
					"stateMutability": "nonpayable",
					"type": "function"
				},
				{
					"inputs": [],
					"name": "balanceOf",
					"outputs": [
						{
							"internalType": "uint256",
							"name": "",
							"type": "uint256"
						}
					],
					"stateMutability": "view",
					"type": "function"
				},
				{
					"inputs": [
						{
							"internalType": "address",
							"name": "walletAddress",
							"type": "address"
						}
					],
					"name": "deposit",
					"outputs": [],
					"stateMutability": "payable",
					"type": "function"
				},
				{
					"inputs": [
						{
							"internalType": "uint256",
							"name": "",
							"type": "uint256"
						}
					],
					"name": "kids",
					"outputs": [
						{
							"internalType": "address payable",
							"name": "walletAddress",
							"type": "address"
						},
						{
							"internalType": "string",
							"name": "firstname",
							"type": "string"
						},
						{
							"internalType": "string",
							"name": "lastname",
							"type": "string"
						},
						{
							"internalType": "uint256",
							"name": "releaseTime",
							"type": "uint256"
						},
						{
							"internalType": "uint256",
							"name": "amount",
							"type": "uint256"
						},
						{
							"internalType": "bool",
							"name": "canwithdraw",
							"type": "bool"
						}
					],
					"stateMutability": "view",
					"type": "function"
				},
				{
					"inputs": [
						{
							"internalType": "address payable",
							"name": "walletAddress",
							"type": "address"
						}
					],
					"name": "withdraw",
					"outputs": [],
					"stateMutability": "payable",
					"type": "function"
				}
			],
			"devdoc": {
				"kind": "dev",
				"methods": {},
				"version": 1
			},
			"evm": {
				"assembly": "    /* \"AncestorContract.sol\":42:2870  contract myContract{... */\n  mstore(0x40, 0x80)\n    /* \"AncestorContract.sol\":216:264  constructor(){... */\n  callvalue\n  dup1\n  iszero\n  tag_1\n  jumpi\n  0x00\n  dup1\n  revert\ntag_1:\n  pop\n    /* \"AncestorContract.sol\":246:256  msg.sender */\n  caller\n    /* \"AncestorContract.sol\":240:245  owner */\n  0x00\n  dup1\n    /* \"AncestorContract.sol\":240:256  owner=msg.sender */\n  0x0100\n  exp\n  dup2\n  sload\n  dup2\n  0xffffffffffffffffffffffffffffffffffffffff\n  mul\n  not\n  and\n  swap1\n  dup4\n  0xffffffffffffffffffffffffffffffffffffffff\n  and\n  mul\n  or\n  swap1\n  sstore\n  pop\n    /* \"AncestorContract.sol\":42:2870  contract myContract{... */\n  dataSize(sub_0)\n  dup1\n  dataOffset(sub_0)\n  0x00\n  codecopy\n  0x00\n  return\nstop\n\nsub_0: assembly {\n        /* \"AncestorContract.sol\":42:2870  contract myContract{... */\n      mstore(0x40, 0x80)\n      jumpi(tag_1, lt(calldatasize, 0x04))\n      shr(0xe0, calldataload(0x00))\n      dup1\n      0x31d575c5\n      eq\n      tag_2\n      jumpi\n      dup1\n      0x51cff8d9\n      eq\n      tag_3\n      jumpi\n      dup1\n      0x722713f7\n      eq\n      tag_4\n      jumpi\n      dup1\n      0x7285fd3a\n      eq\n      tag_5\n      jumpi\n      dup1\n      0xa9e99ea4\n      eq\n      tag_6\n      jumpi\n      dup1\n      0xf340fa01\n      eq\n      tag_7\n      jumpi\n    tag_1:\n      0x00\n      dup1\n      revert\n        /* \"AncestorContract.sol\":661:1105  function addKid(... */\n    tag_2:\n      callvalue\n      dup1\n      iszero\n      tag_8\n      jumpi\n      0x00\n      dup1\n      revert\n    tag_8:\n      pop\n      tag_9\n      0x04\n      dup1\n      calldatasize\n      sub\n      dup2\n      add\n      swap1\n      tag_10\n      swap2\n      swap1\n      tag_11\n      jump\t// in\n    tag_10:\n      tag_12\n      jump\t// in\n    tag_9:\n      stop\n        /* \"AncestorContract.sol\":2493:2867  function withdraw(address payable walletAddress) payable public{... */\n    tag_3:\n      tag_13\n      0x04\n      dup1\n      calldatasize\n      sub\n      dup2\n      add\n      swap1\n      tag_14\n      swap2\n      swap1\n      tag_15\n      jump\t// in\n    tag_14:\n      tag_16\n      jump\t// in\n    tag_13:\n      stop\n        /* \"AncestorContract.sol\":1201:1294  function balanceOf() public view returns(uint){... */\n    tag_4:\n      callvalue\n      dup1\n      iszero\n      tag_17\n      jumpi\n      0x00\n      dup1\n      revert\n    tag_17:\n      pop\n      tag_18\n      tag_19\n      jump\t// in\n    tag_18:\n      mload(0x40)\n      tag_20\n      swap2\n      swap1\n      tag_21\n      jump\t// in\n    tag_20:\n      mload(0x40)\n      dup1\n      swap2\n      sub\n      swap1\n      return\n        /* \"AncestorContract.sol\":497:514  kid[] public kids */\n    tag_5:\n      callvalue\n      dup1\n      iszero\n      tag_22\n      jumpi\n      0x00\n      dup1\n      revert\n    tag_22:\n      pop\n      tag_23\n      0x04\n      dup1\n      calldatasize\n      sub\n      dup2\n      add\n      swap1\n      tag_24\n      swap2\n      swap1\n      tag_25\n      jump\t// in\n    tag_24:\n      tag_26\n      jump\t// in\n    tag_23:\n      mload(0x40)\n      tag_27\n      swap7\n      swap6\n      swap5\n      swap4\n      swap3\n      swap2\n      swap1\n      tag_28\n      jump\t// in\n    tag_27:\n      mload(0x40)\n      dup1\n      swap2\n      sub\n      swap1\n      return\n        /* \"AncestorContract.sol\":2078:2461  function avaliableToWithdraw(address walletAddress) public returns(bool){... */\n    tag_6:\n      callvalue\n      dup1\n      iszero\n      tag_29\n      jumpi\n      0x00\n      dup1\n      revert\n    tag_29:\n      pop\n      tag_30\n      0x04\n      dup1\n      calldatasize\n      sub\n      dup2\n      add\n      swap1\n      tag_31\n      swap2\n      swap1\n      tag_32\n      jump\t// in\n    tag_31:\n      tag_33\n      jump\t// in\n    tag_30:\n      mload(0x40)\n      tag_34\n      swap2\n      swap1\n      tag_35\n      jump\t// in\n    tag_34:\n      mload(0x40)\n      dup1\n      swap2\n      sub\n      swap1\n      return\n        /* \"AncestorContract.sol\":1363:1467  function deposit(address walletAddress) payable public{... */\n    tag_7:\n      tag_36\n      0x04\n      dup1\n      calldatasize\n      sub\n      dup2\n      add\n      swap1\n      tag_37\n      swap2\n      swap1\n      tag_32\n      jump\t// in\n    tag_37:\n      tag_38\n      jump\t// in\n    tag_36:\n      stop\n        /* \"AncestorContract.sol\":661:1105  function addKid(... */\n    tag_12:\n        /* \"AncestorContract.sol\":574:579  owner */\n      0x00\n      dup1\n      sload\n      swap1\n      0x0100\n      exp\n      swap1\n      div\n      0xffffffffffffffffffffffffffffffffffffffff\n      and\n        /* \"AncestorContract.sol\":562:579  msg.sender==owner */\n      0xffffffffffffffffffffffffffffffffffffffff\n      and\n        /* \"AncestorContract.sol\":562:572  msg.sender */\n      caller\n        /* \"AncestorContract.sol\":562:579  msg.sender==owner */\n      0xffffffffffffffffffffffffffffffffffffffff\n      and\n      eq\n        /* \"AncestorContract.sol\":554:606  require(msg.sender==owner,\"only owner can add kids\") */\n      tag_40\n      jumpi\n      mload(0x40)\n      0x08c379a000000000000000000000000000000000000000000000000000000000\n      dup2\n      mstore\n      0x04\n      add\n      tag_41\n      swap1\n      tag_42\n      jump\t// in\n    tag_41:\n      mload(0x40)\n      dup1\n      swap2\n      sub\n      swap1\n      revert\n    tag_40:\n        /* \"AncestorContract.sol\":892:896  kids */\n      0x01\n        /* \"AncestorContract.sol\":902:1092  kid(... */\n      mload(0x40)\n      dup1\n      0xc0\n      add\n      0x40\n      mstore\n      dup1\n        /* \"AncestorContract.sol\":924:937  walletAddress */\n      dup9\n        /* \"AncestorContract.sol\":902:1092  kid(... */\n      0xffffffffffffffffffffffffffffffffffffffff\n      and\n      dup2\n      mstore\n      0x20\n      add\n        /* \"AncestorContract.sol\":956:965  firstname */\n      dup8\n        /* \"AncestorContract.sol\":902:1092  kid(... */\n      dup2\n      mstore\n      0x20\n      add\n        /* \"AncestorContract.sol\":984:992  lastname */\n      dup7\n        /* \"AncestorContract.sol\":902:1092  kid(... */\n      dup2\n      mstore\n      0x20\n      add\n        /* \"AncestorContract.sol\":1011:1022  releaseTime */\n      dup6\n        /* \"AncestorContract.sol\":902:1092  kid(... */\n      dup2\n      mstore\n      0x20\n      add\n        /* \"AncestorContract.sol\":1041:1047  amount */\n      dup5\n        /* \"AncestorContract.sol\":902:1092  kid(... */\n      dup2\n      mstore\n      0x20\n      add\n        /* \"AncestorContract.sol\":1066:1077  canwithdraw */\n      dup4\n        /* \"AncestorContract.sol\":902:1092  kid(... */\n      iszero\n      iszero\n      dup2\n      mstore\n      pop\n        /* \"AncestorContract.sol\":892:1093  kids.push(kid(... */\n      swap1\n      dup1\n      0x01\n      dup2\n      sload\n      add\n      dup1\n      dup3\n      sstore\n      dup1\n      swap2\n      pop\n      pop\n      0x01\n      swap1\n      sub\n      swap1\n      0x00\n      mstore\n      keccak256(0x00, 0x20)\n      swap1\n      0x06\n      mul\n      add\n      0x00\n      swap1\n      swap2\n      swap1\n      swap2\n      swap1\n      swap2\n      pop\n      0x00\n      dup3\n      add\n      mload\n      dup2\n      0x00\n      add\n      exp(0x0100, 0x00)\n      dup2\n      sload\n      dup2\n      0xffffffffffffffffffffffffffffffffffffffff\n      mul\n      not\n      and\n      swap1\n      dup4\n      0xffffffffffffffffffffffffffffffffffffffff\n      and\n      mul\n      or\n      swap1\n      sstore\n      pop\n      0x20\n      dup3\n      add\n      mload\n      dup2\n      0x01\n      add\n      swap1\n      dup2\n      tag_45\n      swap2\n      swap1\n      tag_46\n      jump\t// in\n    tag_45:\n      pop\n      0x40\n      dup3\n      add\n      mload\n      dup2\n      0x02\n      add\n      swap1\n      dup2\n      tag_47\n      swap2\n      swap1\n      tag_46\n      jump\t// in\n    tag_47:\n      pop\n      0x60\n      dup3\n      add\n      mload\n      dup2\n      0x03\n      add\n      sstore\n      0x80\n      dup3\n      add\n      mload\n      dup2\n      0x04\n      add\n      sstore\n      0xa0\n      dup3\n      add\n      mload\n      dup2\n      0x05\n      add\n      exp(0x0100, 0x00)\n      dup2\n      sload\n      dup2\n      0xff\n      mul\n      not\n      and\n      swap1\n      dup4\n      iszero\n      iszero\n      mul\n      or\n      swap1\n      sstore\n      pop\n      pop\n      pop\n        /* \"AncestorContract.sol\":661:1105  function addKid(... */\n      pop\n      pop\n      pop\n      pop\n      pop\n      pop\n      jump\t// out\n        /* \"AncestorContract.sol\":2493:2867  function withdraw(address payable walletAddress) payable public{... */\n    tag_16:\n        /* \"AncestorContract.sol\":2567:2577  uint index */\n      0x00\n        /* \"AncestorContract.sol\":2578:2601  getIndex(walletAddress) */\n      tag_49\n        /* \"AncestorContract.sol\":2587:2600  walletAddress */\n      dup3\n        /* \"AncestorContract.sol\":2578:2586  getIndex */\n      tag_50\n        /* \"AncestorContract.sol\":2578:2601  getIndex(walletAddress) */\n      jump\t// in\n    tag_49:\n        /* \"AncestorContract.sol\":2567:2601  uint index=getIndex(walletAddress) */\n      swap1\n      pop\n        /* \"AncestorContract.sol\":2632:2636  kids */\n      0x01\n        /* \"AncestorContract.sol\":2637:2642  index */\n      dup2\n        /* \"AncestorContract.sol\":2632:2643  kids[index] */\n      dup2\n      sload\n      dup2\n      lt\n      tag_51\n      jumpi\n      tag_52\n      tag_53\n      jump\t// in\n    tag_52:\n    tag_51:\n      swap1\n      0x00\n      mstore\n      keccak256(0x00, 0x20)\n      swap1\n      0x06\n      mul\n      add\n        /* \"AncestorContract.sol\":2632:2657  kids[index].walletAddress */\n      0x00\n      add\n      0x00\n      swap1\n      sload\n      swap1\n      0x0100\n      exp\n      swap1\n      div\n      0xffffffffffffffffffffffffffffffffffffffff\n      and\n        /* \"AncestorContract.sol\":2620:2657  msg.sender==kids[index].walletAddress */\n      0xffffffffffffffffffffffffffffffffffffffff\n      and\n        /* \"AncestorContract.sol\":2620:2630  msg.sender */\n      caller\n        /* \"AncestorContract.sol\":2620:2657  msg.sender==kids[index].walletAddress */\n      0xffffffffffffffffffffffffffffffffffffffff\n      and\n      eq\n        /* \"AncestorContract.sol\":2612:2701  require(msg.sender==kids[index].walletAddress,\"you are not the rightful kid to withdraw\") */\n      tag_55\n      jumpi\n      mload(0x40)\n      0x08c379a000000000000000000000000000000000000000000000000000000000\n      dup2\n      mstore\n      0x04\n      add\n      tag_56\n      swap1\n      tag_57\n      jump\t// in\n    tag_56:\n      mload(0x40)\n      dup1\n      swap2\n      sub\n      swap1\n      revert\n    tag_55:\n        /* \"AncestorContract.sol\":2745:2749  true */\n      0x01\n        /* \"AncestorContract.sol\":2720:2749  kids[index].canwithdraw==true */\n      iszero\n      iszero\n        /* \"AncestorContract.sol\":2720:2724  kids */\n      0x01\n        /* \"AncestorContract.sol\":2725:2730  index */\n      dup3\n        /* \"AncestorContract.sol\":2720:2731  kids[index] */\n      dup2\n      sload\n      dup2\n      lt\n      tag_58\n      jumpi\n      tag_59\n      tag_53\n      jump\t// in\n    tag_59:\n    tag_58:\n      swap1\n      0x00\n      mstore\n      keccak256(0x00, 0x20)\n      swap1\n      0x06\n      mul\n      add\n        /* \"AncestorContract.sol\":2720:2743  kids[index].canwithdraw */\n      0x05\n      add\n      0x00\n      swap1\n      sload\n      swap1\n      0x0100\n      exp\n      swap1\n      div\n      0xff\n      and\n        /* \"AncestorContract.sol\":2720:2749  kids[index].canwithdraw==true */\n      iszero\n      iszero\n      eq\n        /* \"AncestorContract.sol\":2712:2794  require(kids[index].canwithdraw==true,\"you are not able to withdraw at this time\") */\n      tag_61\n      jumpi\n      mload(0x40)\n      0x08c379a000000000000000000000000000000000000000000000000000000000\n      dup2\n      mstore\n      0x04\n      add\n      tag_62\n      swap1\n      tag_63\n      jump\t// in\n    tag_62:\n      mload(0x40)\n      dup1\n      swap2\n      sub\n      swap1\n      revert\n    tag_61:\n        /* \"AncestorContract.sol\":2805:2809  kids */\n      0x01\n        /* \"AncestorContract.sol\":2810:2815  index */\n      dup2\n        /* \"AncestorContract.sol\":2805:2816  kids[index] */\n      dup2\n      sload\n      dup2\n      lt\n      tag_64\n      jumpi\n      tag_65\n      tag_53\n      jump\t// in\n    tag_65:\n    tag_64:\n      swap1\n      0x00\n      mstore\n      keccak256(0x00, 0x20)\n      swap1\n      0x06\n      mul\n      add\n        /* \"AncestorContract.sol\":2805:2830  kids[index].walletAddress */\n      0x00\n      add\n      0x00\n      swap1\n      sload\n      swap1\n      0x0100\n      exp\n      swap1\n      div\n      0xffffffffffffffffffffffffffffffffffffffff\n      and\n        /* \"AncestorContract.sol\":2805:2839  kids[index].walletAddress.transfer */\n      0xffffffffffffffffffffffffffffffffffffffff\n      and\n        /* \"AncestorContract.sol\":2805:2859  kids[index].walletAddress.transfer(kids[index].amount) */\n      0x08fc\n        /* \"AncestorContract.sol\":2840:2844  kids */\n      0x01\n        /* \"AncestorContract.sol\":2845:2850  index */\n      dup4\n        /* \"AncestorContract.sol\":2840:2851  kids[index] */\n      dup2\n      sload\n      dup2\n      lt\n      tag_67\n      jumpi\n      tag_68\n      tag_53\n      jump\t// in\n    tag_68:\n    tag_67:\n      swap1\n      0x00\n      mstore\n      keccak256(0x00, 0x20)\n      swap1\n      0x06\n      mul\n      add\n        /* \"AncestorContract.sol\":2840:2858  kids[index].amount */\n      0x04\n      add\n      sload\n        /* \"AncestorContract.sol\":2805:2859  kids[index].walletAddress.transfer(kids[index].amount) */\n      swap1\n      dup2\n      iszero\n      mul\n      swap1\n      mload(0x40)\n      0x00\n      mload(0x40)\n      dup1\n      dup4\n      sub\n      dup2\n      dup6\n      dup9\n      dup9\n      call\n      swap4\n      pop\n      pop\n      pop\n      pop\n      iszero\n      dup1\n      iszero\n      tag_71\n      jumpi\n      returndatasize\n      0x00\n      dup1\n      returndatacopy\n      revert(0x00, returndatasize)\n    tag_71:\n      pop\n        /* \"AncestorContract.sol\":2556:2867  {... */\n      pop\n        /* \"AncestorContract.sol\":2493:2867  function withdraw(address payable walletAddress) payable public{... */\n      pop\n      jump\t// out\n        /* \"AncestorContract.sol\":1201:1294  function balanceOf() public view returns(uint){... */\n    tag_19:\n        /* \"AncestorContract.sol\":1242:1246  uint */\n      0x00\n        /* \"AncestorContract.sol\":1265:1286  address(this).balance */\n      selfbalance\n        /* \"AncestorContract.sol\":1258:1286  return address(this).balance */\n      swap1\n      pop\n        /* \"AncestorContract.sol\":1201:1294  function balanceOf() public view returns(uint){... */\n      swap1\n      jump\t// out\n        /* \"AncestorContract.sol\":497:514  kid[] public kids */\n    tag_26:\n      0x01\n      dup2\n      dup2\n      sload\n      dup2\n      lt\n      tag_73\n      jumpi\n      0x00\n      dup1\n      revert\n    tag_73:\n      swap1\n      0x00\n      mstore\n      keccak256(0x00, 0x20)\n      swap1\n      0x06\n      mul\n      add\n      0x00\n      swap2\n      pop\n      swap1\n      pop\n      dup1\n      0x00\n      add\n      0x00\n      swap1\n      sload\n      swap1\n      0x0100\n      exp\n      swap1\n      div\n      0xffffffffffffffffffffffffffffffffffffffff\n      and\n      swap1\n      dup1\n      0x01\n      add\n      dup1\n      sload\n      tag_75\n      swap1\n      tag_76\n      jump\t// in\n    tag_75:\n      dup1\n      0x1f\n      add\n      0x20\n      dup1\n      swap2\n      div\n      mul\n      0x20\n      add\n      mload(0x40)\n      swap1\n      dup2\n      add\n      0x40\n      mstore\n      dup1\n      swap3\n      swap2\n      swap1\n      dup2\n      dup2\n      mstore\n      0x20\n      add\n      dup3\n      dup1\n      sload\n      tag_77\n      swap1\n      tag_76\n      jump\t// in\n    tag_77:\n      dup1\n      iszero\n      tag_78\n      jumpi\n      dup1\n      0x1f\n      lt\n      tag_79\n      jumpi\n      0x0100\n      dup1\n      dup4\n      sload\n      div\n      mul\n      dup4\n      mstore\n      swap2\n      0x20\n      add\n      swap2\n      jump(tag_78)\n    tag_79:\n      dup3\n      add\n      swap2\n      swap1\n      0x00\n      mstore\n      keccak256(0x00, 0x20)\n      swap1\n    tag_80:\n      dup2\n      sload\n      dup2\n      mstore\n      swap1\n      0x01\n      add\n      swap1\n      0x20\n      add\n      dup1\n      dup4\n      gt\n      tag_80\n      jumpi\n      dup3\n      swap1\n      sub\n      0x1f\n      and\n      dup3\n      add\n      swap2\n    tag_78:\n      pop\n      pop\n      pop\n      pop\n      pop\n      swap1\n      dup1\n      0x02\n      add\n      dup1\n      sload\n      tag_81\n      swap1\n      tag_76\n      jump\t// in\n    tag_81:\n      dup1\n      0x1f\n      add\n      0x20\n      dup1\n      swap2\n      div\n      mul\n      0x20\n      add\n      mload(0x40)\n      swap1\n      dup2\n      add\n      0x40\n      mstore\n      dup1\n      swap3\n      swap2\n      swap1\n      dup2\n      dup2\n      mstore\n      0x20\n      add\n      dup3\n      dup1\n      sload\n      tag_82\n      swap1\n      tag_76\n      jump\t// in\n    tag_82:\n      dup1\n      iszero\n      tag_83\n      jumpi\n      dup1\n      0x1f\n      lt\n      tag_84\n      jumpi\n      0x0100\n      dup1\n      dup4\n      sload\n      div\n      mul\n      dup4\n      mstore\n      swap2\n      0x20\n      add\n      swap2\n      jump(tag_83)\n    tag_84:\n      dup3\n      add\n      swap2\n      swap1\n      0x00\n      mstore\n      keccak256(0x00, 0x20)\n      swap1\n    tag_85:\n      dup2\n      sload\n      dup2\n      mstore\n      swap1\n      0x01\n      add\n      swap1\n      0x20\n      add\n      dup1\n      dup4\n      gt\n      tag_85\n      jumpi\n      dup3\n      swap1\n      sub\n      0x1f\n      and\n      dup3\n      add\n      swap2\n    tag_83:\n      pop\n      pop\n      pop\n      pop\n      pop\n      swap1\n      dup1\n      0x03\n      add\n      sload\n      swap1\n      dup1\n      0x04\n      add\n      sload\n      swap1\n      dup1\n      0x05\n      add\n      0x00\n      swap1\n      sload\n      swap1\n      0x0100\n      exp\n      swap1\n      div\n      0xff\n      and\n      swap1\n      pop\n      dup7\n      jump\t// out\n        /* \"AncestorContract.sol\":2078:2461  function avaliableToWithdraw(address walletAddress) public returns(bool){... */\n    tag_33:\n        /* \"AncestorContract.sol\":2145:2149  bool */\n      0x00\n        /* \"AncestorContract.sol\":2161:2171  uint index */\n      dup1\n        /* \"AncestorContract.sol\":2172:2195  getIndex(walletAddress) */\n      tag_87\n        /* \"AncestorContract.sol\":2181:2194  walletAddress */\n      dup4\n        /* \"AncestorContract.sol\":2172:2180  getIndex */\n      tag_50\n        /* \"AncestorContract.sol\":2172:2195  getIndex(walletAddress) */\n      jump\t// in\n    tag_87:\n        /* \"AncestorContract.sol\":2161:2195  uint index=getIndex(walletAddress) */\n      swap1\n      pop\n        /* \"AncestorContract.sol\":2230:2234  kids */\n      0x01\n        /* \"AncestorContract.sol\":2235:2240  index */\n      dup2\n        /* \"AncestorContract.sol\":2230:2241  kids[index] */\n      dup2\n      sload\n      dup2\n      lt\n      tag_88\n      jumpi\n      tag_89\n      tag_53\n      jump\t// in\n    tag_89:\n    tag_88:\n      swap1\n      0x00\n      mstore\n      keccak256(0x00, 0x20)\n      swap1\n      0x06\n      mul\n      add\n        /* \"AncestorContract.sol\":2230:2253  kids[index].releaseTime */\n      0x03\n      add\n      sload\n        /* \"AncestorContract.sol\":2214:2229  block.timestamp */\n      timestamp\n        /* \"AncestorContract.sol\":2214:2253  block.timestamp>kids[index].releaseTime */\n      gt\n        /* \"AncestorContract.sol\":2206:2286  require(block.timestamp>kids[index].releaseTime,\"you are not ready to withdraw\") */\n      tag_91\n      jumpi\n      mload(0x40)\n      0x08c379a000000000000000000000000000000000000000000000000000000000\n      dup2\n      mstore\n      0x04\n      add\n      tag_92\n      swap1\n      tag_93\n      jump\t// in\n    tag_92:\n      mload(0x40)\n      dup1\n      swap2\n      sub\n      swap1\n      revert\n    tag_91:\n        /* \"AncestorContract.sol\":2316:2320  kids */\n      0x01\n        /* \"AncestorContract.sol\":2321:2326  index */\n      dup2\n        /* \"AncestorContract.sol\":2316:2327  kids[index] */\n      dup2\n      sload\n      dup2\n      lt\n      tag_94\n      jumpi\n      tag_95\n      tag_53\n      jump\t// in\n    tag_95:\n    tag_94:\n      swap1\n      0x00\n      mstore\n      keccak256(0x00, 0x20)\n      swap1\n      0x06\n      mul\n      add\n        /* \"AncestorContract.sol\":2316:2339  kids[index].releaseTime */\n      0x03\n      add\n      sload\n        /* \"AncestorContract.sol\":2300:2315  block.timestamp */\n      timestamp\n        /* \"AncestorContract.sol\":2300:2339  block.timestamp>kids[index].releaseTime */\n      gt\n        /* \"AncestorContract.sol\":2297:2431  if(block.timestamp>kids[index].releaseTime)... */\n      iszero\n      tag_97\n      jumpi\n        /* \"AncestorContract.sol\":2389:2393  true */\n      0x01\n        /* \"AncestorContract.sol\":2365:2369  kids */\n      dup1\n        /* \"AncestorContract.sol\":2370:2375  index */\n      dup3\n        /* \"AncestorContract.sol\":2365:2376  kids[index] */\n      dup2\n      sload\n      dup2\n      lt\n      tag_98\n      jumpi\n      tag_99\n      tag_53\n      jump\t// in\n    tag_99:\n    tag_98:\n      swap1\n      0x00\n      mstore\n      keccak256(0x00, 0x20)\n      swap1\n      0x06\n      mul\n      add\n        /* \"AncestorContract.sol\":2365:2388  kids[index].canwithdraw */\n      0x05\n      add\n      0x00\n        /* \"AncestorContract.sol\":2365:2393  kids[index].canwithdraw=true */\n      0x0100\n      exp\n      dup2\n      sload\n      dup2\n      0xff\n      mul\n      not\n      and\n      swap1\n      dup4\n      iszero\n      iszero\n      mul\n      or\n      swap1\n      sstore\n      pop\n        /* \"AncestorContract.sol\":2415:2419  true */\n      0x01\n        /* \"AncestorContract.sol\":2408:2419  return true */\n      swap2\n      pop\n      pop\n      jump(tag_86)\n        /* \"AncestorContract.sol\":2297:2431  if(block.timestamp>kids[index].releaseTime)... */\n    tag_97:\n        /* \"AncestorContract.sol\":2448:2453  false */\n      0x00\n        /* \"AncestorContract.sol\":2441:2453  return false */\n      swap2\n      pop\n      pop\n        /* \"AncestorContract.sol\":2078:2461  function avaliableToWithdraw(address walletAddress) public returns(bool){... */\n    tag_86:\n      swap2\n      swap1\n      pop\n      jump\t// out\n        /* \"AncestorContract.sol\":1363:1467  function deposit(address walletAddress) payable public{... */\n    tag_38:\n        /* \"AncestorContract.sol\":1428:1459  addToKidsBalance(walletAddress) */\n      tag_102\n        /* \"AncestorContract.sol\":1445:1458  walletAddress */\n      dup2\n        /* \"AncestorContract.sol\":1428:1444  addToKidsBalance */\n      tag_103\n        /* \"AncestorContract.sol\":1428:1459  addToKidsBalance(walletAddress) */\n      jump\t// in\n    tag_102:\n        /* \"AncestorContract.sol\":1363:1467  function deposit(address walletAddress) payable public{... */\n      pop\n      jump\t// out\n        /* \"AncestorContract.sol\":1788:2033  function getIndex(address walletAddress) view private returns(uint){... */\n    tag_50:\n        /* \"AncestorContract.sol\":1850:1854  uint */\n      0x00\n        /* \"AncestorContract.sol\":1870:1876  uint i */\n      dup1\n        /* \"AncestorContract.sol\":1877:1878  0 */\n      0x00\n        /* \"AncestorContract.sol\":1870:1878  uint i=0 */\n      swap1\n      pop\n        /* \"AncestorContract.sol\":1866:2006  for(uint i=0;i<kids.length;i++){... */\n    tag_105:\n        /* \"AncestorContract.sol\":1881:1885  kids */\n      0x01\n        /* \"AncestorContract.sol\":1881:1892  kids.length */\n      dup1\n      sload\n      swap1\n      pop\n        /* \"AncestorContract.sol\":1879:1880  i */\n      dup2\n        /* \"AncestorContract.sol\":1879:1892  i<kids.length */\n      lt\n        /* \"AncestorContract.sol\":1866:2006  for(uint i=0;i<kids.length;i++){... */\n      iszero\n      tag_106\n      jumpi\n        /* \"AncestorContract.sol\":1938:1951  walletAddress */\n      dup3\n        /* \"AncestorContract.sol\":1915:1951  kids[i].walletAddress==walletAddress */\n      0xffffffffffffffffffffffffffffffffffffffff\n      and\n        /* \"AncestorContract.sol\":1915:1919  kids */\n      0x01\n        /* \"AncestorContract.sol\":1920:1921  i */\n      dup3\n        /* \"AncestorContract.sol\":1915:1922  kids[i] */\n      dup2\n      sload\n      dup2\n      lt\n      tag_108\n      jumpi\n      tag_109\n      tag_53\n      jump\t// in\n    tag_109:\n    tag_108:\n      swap1\n      0x00\n      mstore\n      keccak256(0x00, 0x20)\n      swap1\n      0x06\n      mul\n      add\n        /* \"AncestorContract.sol\":1915:1936  kids[i].walletAddress */\n      0x00\n      add\n      0x00\n      swap1\n      sload\n      swap1\n      0x0100\n      exp\n      swap1\n      div\n      0xffffffffffffffffffffffffffffffffffffffff\n      and\n        /* \"AncestorContract.sol\":1915:1951  kids[i].walletAddress==walletAddress */\n      0xffffffffffffffffffffffffffffffffffffffff\n      and\n      sub\n        /* \"AncestorContract.sol\":1912:1995  if(kids[i].walletAddress==walletAddress){... */\n      tag_111\n      jumpi\n        /* \"AncestorContract.sol\":1978:1979  i */\n      dup1\n        /* \"AncestorContract.sol\":1971:1979  return i */\n      swap2\n      pop\n      pop\n      jump(tag_104)\n        /* \"AncestorContract.sol\":1912:1995  if(kids[i].walletAddress==walletAddress){... */\n    tag_111:\n        /* \"AncestorContract.sol\":1893:1896  i++ */\n      dup1\n      dup1\n      tag_112\n      swap1\n      tag_113\n      jump\t// in\n    tag_112:\n      swap2\n      pop\n      pop\n        /* \"AncestorContract.sol\":1866:2006  for(uint i=0;i<kids.length;i++){... */\n      jump(tag_105)\n    tag_106:\n      pop\n        /* \"AncestorContract.sol\":2023:2025  99 */\n      0x63\n        /* \"AncestorContract.sol\":2016:2025  return 99 */\n      swap1\n      pop\n        /* \"AncestorContract.sol\":1788:2033  function getIndex(address walletAddress) view private returns(uint){... */\n    tag_104:\n      swap2\n      swap1\n      pop\n      jump\t// out\n        /* \"AncestorContract.sol\":1473:1780  function addToKidsBalance(address walletAddress) private {... */\n    tag_103:\n        /* \"AncestorContract.sol\":1545:1551  uint i */\n      0x00\n        /* \"AncestorContract.sol\":1541:1773  for(uint i=0;i<kids.length;i++){... */\n    tag_115:\n        /* \"AncestorContract.sol\":1556:1560  kids */\n      0x01\n        /* \"AncestorContract.sol\":1556:1567  kids.length */\n      dup1\n      sload\n      swap1\n      pop\n        /* \"AncestorContract.sol\":1554:1555  i */\n      dup2\n        /* \"AncestorContract.sol\":1554:1567  i<kids.length */\n      lt\n        /* \"AncestorContract.sol\":1541:1773  for(uint i=0;i<kids.length;i++){... */\n      iszero\n      tag_116\n      jumpi\n        /* \"AncestorContract.sol\":1613:1626  walletAddress */\n      dup2\n        /* \"AncestorContract.sol\":1590:1626  kids[i].walletAddress==walletAddress */\n      0xffffffffffffffffffffffffffffffffffffffff\n      and\n        /* \"AncestorContract.sol\":1590:1594  kids */\n      0x01\n        /* \"AncestorContract.sol\":1595:1596  i */\n      dup3\n        /* \"AncestorContract.sol\":1590:1597  kids[i] */\n      dup2\n      sload\n      dup2\n      lt\n      tag_118\n      jumpi\n      tag_119\n      tag_53\n      jump\t// in\n    tag_119:\n    tag_118:\n      swap1\n      0x00\n      mstore\n      keccak256(0x00, 0x20)\n      swap1\n      0x06\n      mul\n      add\n        /* \"AncestorContract.sol\":1590:1611  kids[i].walletAddress */\n      0x00\n      add\n      0x00\n      swap1\n      sload\n      swap1\n      0x0100\n      exp\n      swap1\n      div\n      0xffffffffffffffffffffffffffffffffffffffff\n      and\n        /* \"AncestorContract.sol\":1590:1626  kids[i].walletAddress==walletAddress */\n      0xffffffffffffffffffffffffffffffffffffffff\n      and\n      sub\n        /* \"AncestorContract.sol\":1587:1762  if(kids[i].walletAddress==walletAddress){... */\n      tag_121\n      jumpi\n        /* \"AncestorContract.sol\":1662:1671  msg.value */\n      callvalue\n        /* \"AncestorContract.sol\":1646:1650  kids */\n      0x01\n        /* \"AncestorContract.sol\":1651:1652  i */\n      dup3\n        /* \"AncestorContract.sol\":1646:1653  kids[i] */\n      dup2\n      sload\n      dup2\n      lt\n      tag_122\n      jumpi\n      tag_123\n      tag_53\n      jump\t// in\n    tag_123:\n    tag_122:\n      swap1\n      0x00\n      mstore\n      keccak256(0x00, 0x20)\n      swap1\n      0x06\n      mul\n      add\n        /* \"AncestorContract.sol\":1646:1660  kids[i].amount */\n      0x04\n      add\n      0x00\n        /* \"AncestorContract.sol\":1646:1671  kids[i].amount+=msg.value */\n      dup3\n      dup3\n      sload\n      tag_125\n      swap2\n      swap1\n      tag_126\n      jump\t// in\n    tag_125:\n      swap3\n      pop\n      pop\n      dup2\n      swap1\n      sstore\n      pop\n        /* \"AncestorContract.sol\":1695:1746  LogKidsFunding(walletAddress,msg.value,balanceOf()) */\n      0x5d94d9bb29bad3fb00a180147455e3f0b34f4062ddcd25fcf2a1e3d820079fb8\n        /* \"AncestorContract.sol\":1710:1723  walletAddress */\n      dup3\n        /* \"AncestorContract.sol\":1724:1733  msg.value */\n      callvalue\n        /* \"AncestorContract.sol\":1734:1745  balanceOf() */\n      tag_127\n        /* \"AncestorContract.sol\":1734:1743  balanceOf */\n      tag_19\n        /* \"AncestorContract.sol\":1734:1745  balanceOf() */\n      jump\t// in\n    tag_127:\n        /* \"AncestorContract.sol\":1695:1746  LogKidsFunding(walletAddress,msg.value,balanceOf()) */\n      mload(0x40)\n      tag_128\n      swap4\n      swap3\n      swap2\n      swap1\n      tag_129\n      jump\t// in\n    tag_128:\n      mload(0x40)\n      dup1\n      swap2\n      sub\n      swap1\n      log1\n        /* \"AncestorContract.sol\":1587:1762  if(kids[i].walletAddress==walletAddress){... */\n    tag_121:\n        /* \"AncestorContract.sol\":1568:1571  i++ */\n      dup1\n      dup1\n      tag_130\n      swap1\n      tag_113\n      jump\t// in\n    tag_130:\n      swap2\n      pop\n      pop\n        /* \"AncestorContract.sol\":1541:1773  for(uint i=0;i<kids.length;i++){... */\n      jump(tag_115)\n    tag_116:\n      pop\n        /* \"AncestorContract.sol\":1473:1780  function addToKidsBalance(address walletAddress) private {... */\n      pop\n      jump\t// out\n        /* \"#utility.yul\":7:82   */\n    tag_131:\n        /* \"#utility.yul\":40:46   */\n      0x00\n        /* \"#utility.yul\":73:75   */\n      0x40\n        /* \"#utility.yul\":67:76   */\n      mload\n        /* \"#utility.yul\":57:76   */\n      swap1\n      pop\n        /* \"#utility.yul\":7:82   */\n      swap1\n      jump\t// out\n        /* \"#utility.yul\":88:205   */\n    tag_132:\n        /* \"#utility.yul\":197:198   */\n      0x00\n        /* \"#utility.yul\":194:195   */\n      dup1\n        /* \"#utility.yul\":187:199   */\n      revert\n        /* \"#utility.yul\":211:328   */\n    tag_133:\n        /* \"#utility.yul\":320:321   */\n      0x00\n        /* \"#utility.yul\":317:318   */\n      dup1\n        /* \"#utility.yul\":310:322   */\n      revert\n        /* \"#utility.yul\":334:460   */\n    tag_134:\n        /* \"#utility.yul\":371:378   */\n      0x00\n        /* \"#utility.yul\":411:453   */\n      0xffffffffffffffffffffffffffffffffffffffff\n        /* \"#utility.yul\":404:409   */\n      dup3\n        /* \"#utility.yul\":400:454   */\n      and\n        /* \"#utility.yul\":389:454   */\n      swap1\n      pop\n        /* \"#utility.yul\":334:460   */\n      swap2\n      swap1\n      pop\n      jump\t// out\n        /* \"#utility.yul\":466:570   */\n    tag_135:\n        /* \"#utility.yul\":511:518   */\n      0x00\n        /* \"#utility.yul\":540:564   */\n      tag_196\n        /* \"#utility.yul\":558:563   */\n      dup3\n        /* \"#utility.yul\":540:564   */\n      tag_134\n      jump\t// in\n    tag_196:\n        /* \"#utility.yul\":529:564   */\n      swap1\n      pop\n        /* \"#utility.yul\":466:570   */\n      swap2\n      swap1\n      pop\n      jump\t// out\n        /* \"#utility.yul\":576:714   */\n    tag_136:\n        /* \"#utility.yul\":657:689   */\n      tag_198\n        /* \"#utility.yul\":683:688   */\n      dup2\n        /* \"#utility.yul\":657:689   */\n      tag_135\n      jump\t// in\n    tag_198:\n        /* \"#utility.yul\":650:655   */\n      dup2\n        /* \"#utility.yul\":647:690   */\n      eq\n        /* \"#utility.yul\":637:708   */\n      tag_199\n      jumpi\n        /* \"#utility.yul\":704:705   */\n      0x00\n        /* \"#utility.yul\":701:702   */\n      dup1\n        /* \"#utility.yul\":694:706   */\n      revert\n        /* \"#utility.yul\":637:708   */\n    tag_199:\n        /* \"#utility.yul\":576:714   */\n      pop\n      jump\t// out\n        /* \"#utility.yul\":720:875   */\n    tag_137:\n        /* \"#utility.yul\":774:779   */\n      0x00\n        /* \"#utility.yul\":812:818   */\n      dup2\n        /* \"#utility.yul\":799:819   */\n      calldataload\n        /* \"#utility.yul\":790:819   */\n      swap1\n      pop\n        /* \"#utility.yul\":828:869   */\n      tag_201\n        /* \"#utility.yul\":863:868   */\n      dup2\n        /* \"#utility.yul\":828:869   */\n      tag_136\n      jump\t// in\n    tag_201:\n        /* \"#utility.yul\":720:875   */\n      swap3\n      swap2\n      pop\n      pop\n      jump\t// out\n        /* \"#utility.yul\":881:998   */\n    tag_138:\n        /* \"#utility.yul\":990:991   */\n      0x00\n        /* \"#utility.yul\":987:988   */\n      dup1\n        /* \"#utility.yul\":980:992   */\n      revert\n        /* \"#utility.yul\":1004:1121   */\n    tag_139:\n        /* \"#utility.yul\":1113:1114   */\n      0x00\n        /* \"#utility.yul\":1110:1111   */\n      dup1\n        /* \"#utility.yul\":1103:1115   */\n      revert\n        /* \"#utility.yul\":1127:1229   */\n    tag_140:\n        /* \"#utility.yul\":1168:1174   */\n      0x00\n        /* \"#utility.yul\":1219:1221   */\n      0x1f\n        /* \"#utility.yul\":1215:1222   */\n      not\n        /* \"#utility.yul\":1210:1212   */\n      0x1f\n        /* \"#utility.yul\":1203:1208   */\n      dup4\n        /* \"#utility.yul\":1199:1213   */\n      add\n        /* \"#utility.yul\":1195:1223   */\n      and\n        /* \"#utility.yul\":1185:1223   */\n      swap1\n      pop\n        /* \"#utility.yul\":1127:1229   */\n      swap2\n      swap1\n      pop\n      jump\t// out\n        /* \"#utility.yul\":1235:1415   */\n    tag_141:\n        /* \"#utility.yul\":1283:1360   */\n      0x4e487b7100000000000000000000000000000000000000000000000000000000\n        /* \"#utility.yul\":1280:1281   */\n      0x00\n        /* \"#utility.yul\":1273:1361   */\n      mstore\n        /* \"#utility.yul\":1380:1384   */\n      0x41\n        /* \"#utility.yul\":1377:1378   */\n      0x04\n        /* \"#utility.yul\":1370:1385   */\n      mstore\n        /* \"#utility.yul\":1404:1408   */\n      0x24\n        /* \"#utility.yul\":1401:1402   */\n      0x00\n        /* \"#utility.yul\":1394:1409   */\n      revert\n        /* \"#utility.yul\":1421:1702   */\n    tag_142:\n        /* \"#utility.yul\":1504:1531   */\n      tag_207\n        /* \"#utility.yul\":1526:1530   */\n      dup3\n        /* \"#utility.yul\":1504:1531   */\n      tag_140\n      jump\t// in\n    tag_207:\n        /* \"#utility.yul\":1496:1502   */\n      dup2\n        /* \"#utility.yul\":1492:1532   */\n      add\n        /* \"#utility.yul\":1634:1640   */\n      dup2\n        /* \"#utility.yul\":1622:1632   */\n      dup2\n        /* \"#utility.yul\":1619:1641   */\n      lt\n        /* \"#utility.yul\":1598:1616   */\n      0xffffffffffffffff\n        /* \"#utility.yul\":1586:1596   */\n      dup3\n        /* \"#utility.yul\":1583:1617   */\n      gt\n        /* \"#utility.yul\":1580:1642   */\n      or\n        /* \"#utility.yul\":1577:1665   */\n      iszero\n      tag_208\n      jumpi\n        /* \"#utility.yul\":1645:1663   */\n      tag_209\n      tag_141\n      jump\t// in\n    tag_209:\n        /* \"#utility.yul\":1577:1665   */\n    tag_208:\n        /* \"#utility.yul\":1685:1695   */\n      dup1\n        /* \"#utility.yul\":1681:1683   */\n      0x40\n        /* \"#utility.yul\":1674:1696   */\n      mstore\n        /* \"#utility.yul\":1464:1702   */\n      pop\n        /* \"#utility.yul\":1421:1702   */\n      pop\n      pop\n      jump\t// out\n        /* \"#utility.yul\":1708:1837   */\n    tag_143:\n        /* \"#utility.yul\":1742:1748   */\n      0x00\n        /* \"#utility.yul\":1769:1789   */\n      tag_211\n      tag_131\n      jump\t// in\n    tag_211:\n        /* \"#utility.yul\":1759:1789   */\n      swap1\n      pop\n        /* \"#utility.yul\":1798:1831   */\n      tag_212\n        /* \"#utility.yul\":1826:1830   */\n      dup3\n        /* \"#utility.yul\":1818:1824   */\n      dup3\n        /* \"#utility.yul\":1798:1831   */\n      tag_142\n      jump\t// in\n    tag_212:\n        /* \"#utility.yul\":1708:1837   */\n      swap2\n      swap1\n      pop\n      jump\t// out\n        /* \"#utility.yul\":1843:2151   */\n    tag_144:\n        /* \"#utility.yul\":1905:1909   */\n      0x00\n        /* \"#utility.yul\":1995:2013   */\n      0xffffffffffffffff\n        /* \"#utility.yul\":1987:1993   */\n      dup3\n        /* \"#utility.yul\":1984:2014   */\n      gt\n        /* \"#utility.yul\":1981:2037   */\n      iszero\n      tag_214\n      jumpi\n        /* \"#utility.yul\":2017:2035   */\n      tag_215\n      tag_141\n      jump\t// in\n    tag_215:\n        /* \"#utility.yul\":1981:2037   */\n    tag_214:\n        /* \"#utility.yul\":2055:2084   */\n      tag_216\n        /* \"#utility.yul\":2077:2083   */\n      dup3\n        /* \"#utility.yul\":2055:2084   */\n      tag_140\n      jump\t// in\n    tag_216:\n        /* \"#utility.yul\":2047:2084   */\n      swap1\n      pop\n        /* \"#utility.yul\":2139:2143   */\n      0x20\n        /* \"#utility.yul\":2133:2137   */\n      dup2\n        /* \"#utility.yul\":2129:2144   */\n      add\n        /* \"#utility.yul\":2121:2144   */\n      swap1\n      pop\n        /* \"#utility.yul\":1843:2151   */\n      swap2\n      swap1\n      pop\n      jump\t// out\n        /* \"#utility.yul\":2157:2303   */\n    tag_145:\n        /* \"#utility.yul\":2254:2260   */\n      dup3\n        /* \"#utility.yul\":2249:2252   */\n      dup2\n        /* \"#utility.yul\":2244:2247   */\n      dup4\n        /* \"#utility.yul\":2231:2261   */\n      calldatacopy\n        /* \"#utility.yul\":2295:2296   */\n      0x00\n        /* \"#utility.yul\":2286:2292   */\n      dup4\n        /* \"#utility.yul\":2281:2284   */\n      dup4\n        /* \"#utility.yul\":2277:2293   */\n      add\n        /* \"#utility.yul\":2270:2297   */\n      mstore\n        /* \"#utility.yul\":2157:2303   */\n      pop\n      pop\n      pop\n      jump\t// out\n        /* \"#utility.yul\":2309:2734   */\n    tag_146:\n        /* \"#utility.yul\":2387:2392   */\n      0x00\n        /* \"#utility.yul\":2412:2478   */\n      tag_219\n        /* \"#utility.yul\":2428:2477   */\n      tag_220\n        /* \"#utility.yul\":2470:2476   */\n      dup5\n        /* \"#utility.yul\":2428:2477   */\n      tag_144\n      jump\t// in\n    tag_220:\n        /* \"#utility.yul\":2412:2478   */\n      tag_143\n      jump\t// in\n    tag_219:\n        /* \"#utility.yul\":2403:2478   */\n      swap1\n      pop\n        /* \"#utility.yul\":2501:2507   */\n      dup3\n        /* \"#utility.yul\":2494:2499   */\n      dup2\n        /* \"#utility.yul\":2487:2508   */\n      mstore\n        /* \"#utility.yul\":2539:2543   */\n      0x20\n        /* \"#utility.yul\":2532:2537   */\n      dup2\n        /* \"#utility.yul\":2528:2544   */\n      add\n        /* \"#utility.yul\":2577:2580   */\n      dup5\n        /* \"#utility.yul\":2568:2574   */\n      dup5\n        /* \"#utility.yul\":2563:2566   */\n      dup5\n        /* \"#utility.yul\":2559:2575   */\n      add\n        /* \"#utility.yul\":2556:2581   */\n      gt\n        /* \"#utility.yul\":2553:2665   */\n      iszero\n      tag_221\n      jumpi\n        /* \"#utility.yul\":2584:2663   */\n      tag_222\n      tag_139\n      jump\t// in\n    tag_222:\n        /* \"#utility.yul\":2553:2665   */\n    tag_221:\n        /* \"#utility.yul\":2674:2728   */\n      tag_223\n        /* \"#utility.yul\":2721:2727   */\n      dup5\n        /* \"#utility.yul\":2716:2719   */\n      dup3\n        /* \"#utility.yul\":2711:2714   */\n      dup6\n        /* \"#utility.yul\":2674:2728   */\n      tag_145\n      jump\t// in\n    tag_223:\n        /* \"#utility.yul\":2393:2734   */\n      pop\n        /* \"#utility.yul\":2309:2734   */\n      swap4\n      swap3\n      pop\n      pop\n      pop\n      jump\t// out\n        /* \"#utility.yul\":2754:3094   */\n    tag_147:\n        /* \"#utility.yul\":2810:2815   */\n      0x00\n        /* \"#utility.yul\":2859:2862   */\n      dup3\n        /* \"#utility.yul\":2852:2856   */\n      0x1f\n        /* \"#utility.yul\":2844:2850   */\n      dup4\n        /* \"#utility.yul\":2840:2857   */\n      add\n        /* \"#utility.yul\":2836:2863   */\n      slt\n        /* \"#utility.yul\":2826:2948   */\n      tag_225\n      jumpi\n        /* \"#utility.yul\":2867:2946   */\n      tag_226\n      tag_138\n      jump\t// in\n    tag_226:\n        /* \"#utility.yul\":2826:2948   */\n    tag_225:\n        /* \"#utility.yul\":2984:2990   */\n      dup2\n        /* \"#utility.yul\":2971:2991   */\n      calldataload\n        /* \"#utility.yul\":3009:3088   */\n      tag_227\n        /* \"#utility.yul\":3084:3087   */\n      dup5\n        /* \"#utility.yul\":3076:3082   */\n      dup3\n        /* \"#utility.yul\":3069:3073   */\n      0x20\n        /* \"#utility.yul\":3061:3067   */\n      dup7\n        /* \"#utility.yul\":3057:3074   */\n      add\n        /* \"#utility.yul\":3009:3088   */\n      tag_146\n      jump\t// in\n    tag_227:\n        /* \"#utility.yul\":3000:3088   */\n      swap2\n      pop\n        /* \"#utility.yul\":2816:3094   */\n      pop\n        /* \"#utility.yul\":2754:3094   */\n      swap3\n      swap2\n      pop\n      pop\n      jump\t// out\n        /* \"#utility.yul\":3100:3177   */\n    tag_148:\n        /* \"#utility.yul\":3137:3144   */\n      0x00\n        /* \"#utility.yul\":3166:3171   */\n      dup2\n        /* \"#utility.yul\":3155:3171   */\n      swap1\n      pop\n        /* \"#utility.yul\":3100:3177   */\n      swap2\n      swap1\n      pop\n      jump\t// out\n        /* \"#utility.yul\":3183:3305   */\n    tag_149:\n        /* \"#utility.yul\":3256:3280   */\n      tag_230\n        /* \"#utility.yul\":3274:3279   */\n      dup2\n        /* \"#utility.yul\":3256:3280   */\n      tag_148\n      jump\t// in\n    tag_230:\n        /* \"#utility.yul\":3249:3254   */\n      dup2\n        /* \"#utility.yul\":3246:3281   */\n      eq\n        /* \"#utility.yul\":3236:3299   */\n      tag_231\n      jumpi\n        /* \"#utility.yul\":3295:3296   */\n      0x00\n        /* \"#utility.yul\":3292:3293   */\n      dup1\n        /* \"#utility.yul\":3285:3297   */\n      revert\n        /* \"#utility.yul\":3236:3299   */\n    tag_231:\n        /* \"#utility.yul\":3183:3305   */\n      pop\n      jump\t// out\n        /* \"#utility.yul\":3311:3450   */\n    tag_150:\n        /* \"#utility.yul\":3357:3362   */\n      0x00\n        /* \"#utility.yul\":3395:3401   */\n      dup2\n        /* \"#utility.yul\":3382:3402   */\n      calldataload\n        /* \"#utility.yul\":3373:3402   */\n      swap1\n      pop\n        /* \"#utility.yul\":3411:3444   */\n      tag_233\n        /* \"#utility.yul\":3438:3443   */\n      dup2\n        /* \"#utility.yul\":3411:3444   */\n      tag_149\n      jump\t// in\n    tag_233:\n        /* \"#utility.yul\":3311:3450   */\n      swap3\n      swap2\n      pop\n      pop\n      jump\t// out\n        /* \"#utility.yul\":3456:3546   */\n    tag_151:\n        /* \"#utility.yul\":3490:3497   */\n      0x00\n        /* \"#utility.yul\":3533:3538   */\n      dup2\n        /* \"#utility.yul\":3526:3539   */\n      iszero\n        /* \"#utility.yul\":3519:3540   */\n      iszero\n        /* \"#utility.yul\":3508:3540   */\n      swap1\n      pop\n        /* \"#utility.yul\":3456:3546   */\n      swap2\n      swap1\n      pop\n      jump\t// out\n        /* \"#utility.yul\":3552:3668   */\n    tag_152:\n        /* \"#utility.yul\":3622:3643   */\n      tag_236\n        /* \"#utility.yul\":3637:3642   */\n      dup2\n        /* \"#utility.yul\":3622:3643   */\n      tag_151\n      jump\t// in\n    tag_236:\n        /* \"#utility.yul\":3615:3620   */\n      dup2\n        /* \"#utility.yul\":3612:3644   */\n      eq\n        /* \"#utility.yul\":3602:3662   */\n      tag_237\n      jumpi\n        /* \"#utility.yul\":3658:3659   */\n      0x00\n        /* \"#utility.yul\":3655:3656   */\n      dup1\n        /* \"#utility.yul\":3648:3660   */\n      revert\n        /* \"#utility.yul\":3602:3662   */\n    tag_237:\n        /* \"#utility.yul\":3552:3668   */\n      pop\n      jump\t// out\n        /* \"#utility.yul\":3674:3807   */\n    tag_153:\n        /* \"#utility.yul\":3717:3722   */\n      0x00\n        /* \"#utility.yul\":3755:3761   */\n      dup2\n        /* \"#utility.yul\":3742:3762   */\n      calldataload\n        /* \"#utility.yul\":3733:3762   */\n      swap1\n      pop\n        /* \"#utility.yul\":3771:3801   */\n      tag_239\n        /* \"#utility.yul\":3795:3800   */\n      dup2\n        /* \"#utility.yul\":3771:3801   */\n      tag_152\n      jump\t// in\n    tag_239:\n        /* \"#utility.yul\":3674:3807   */\n      swap3\n      swap2\n      pop\n      pop\n      jump\t// out\n        /* \"#utility.yul\":3813:5240   */\n    tag_11:\n        /* \"#utility.yul\":3942:3948   */\n      0x00\n        /* \"#utility.yul\":3950:3956   */\n      dup1\n        /* \"#utility.yul\":3958:3964   */\n      0x00\n        /* \"#utility.yul\":3966:3972   */\n      dup1\n        /* \"#utility.yul\":3974:3980   */\n      0x00\n        /* \"#utility.yul\":3982:3988   */\n      dup1\n        /* \"#utility.yul\":4031:4034   */\n      0xc0\n        /* \"#utility.yul\":4019:4028   */\n      dup8\n        /* \"#utility.yul\":4010:4017   */\n      dup10\n        /* \"#utility.yul\":4006:4029   */\n      sub\n        /* \"#utility.yul\":4002:4035   */\n      slt\n        /* \"#utility.yul\":3999:4119   */\n      iszero\n      tag_241\n      jumpi\n        /* \"#utility.yul\":4038:4117   */\n      tag_242\n      tag_132\n      jump\t// in\n    tag_242:\n        /* \"#utility.yul\":3999:4119   */\n    tag_241:\n        /* \"#utility.yul\":4158:4159   */\n      0x00\n        /* \"#utility.yul\":4183:4244   */\n      tag_243\n        /* \"#utility.yul\":4236:4243   */\n      dup10\n        /* \"#utility.yul\":4227:4233   */\n      dup3\n        /* \"#utility.yul\":4216:4225   */\n      dup11\n        /* \"#utility.yul\":4212:4234   */\n      add\n        /* \"#utility.yul\":4183:4244   */\n      tag_137\n      jump\t// in\n    tag_243:\n        /* \"#utility.yul\":4173:4244   */\n      swap7\n      pop\n        /* \"#utility.yul\":4129:4254   */\n      pop\n        /* \"#utility.yul\":4321:4323   */\n      0x20\n        /* \"#utility.yul\":4310:4319   */\n      dup8\n        /* \"#utility.yul\":4306:4324   */\n      add\n        /* \"#utility.yul\":4293:4325   */\n      calldataload\n        /* \"#utility.yul\":4352:4370   */\n      0xffffffffffffffff\n        /* \"#utility.yul\":4344:4350   */\n      dup2\n        /* \"#utility.yul\":4341:4371   */\n      gt\n        /* \"#utility.yul\":4338:4455   */\n      iszero\n      tag_244\n      jumpi\n        /* \"#utility.yul\":4374:4453   */\n      tag_245\n      tag_133\n      jump\t// in\n    tag_245:\n        /* \"#utility.yul\":4338:4455   */\n    tag_244:\n        /* \"#utility.yul\":4479:4542   */\n      tag_246\n        /* \"#utility.yul\":4534:4541   */\n      dup10\n        /* \"#utility.yul\":4525:4531   */\n      dup3\n        /* \"#utility.yul\":4514:4523   */\n      dup11\n        /* \"#utility.yul\":4510:4532   */\n      add\n        /* \"#utility.yul\":4479:4542   */\n      tag_147\n      jump\t// in\n    tag_246:\n        /* \"#utility.yul\":4469:4542   */\n      swap6\n      pop\n        /* \"#utility.yul\":4264:4552   */\n      pop\n        /* \"#utility.yul\":4619:4621   */\n      0x40\n        /* \"#utility.yul\":4608:4617   */\n      dup8\n        /* \"#utility.yul\":4604:4622   */\n      add\n        /* \"#utility.yul\":4591:4623   */\n      calldataload\n        /* \"#utility.yul\":4650:4668   */\n      0xffffffffffffffff\n        /* \"#utility.yul\":4642:4648   */\n      dup2\n        /* \"#utility.yul\":4639:4669   */\n      gt\n        /* \"#utility.yul\":4636:4753   */\n      iszero\n      tag_247\n      jumpi\n        /* \"#utility.yul\":4672:4751   */\n      tag_248\n      tag_133\n      jump\t// in\n    tag_248:\n        /* \"#utility.yul\":4636:4753   */\n    tag_247:\n        /* \"#utility.yul\":4777:4840   */\n      tag_249\n        /* \"#utility.yul\":4832:4839   */\n      dup10\n        /* \"#utility.yul\":4823:4829   */\n      dup3\n        /* \"#utility.yul\":4812:4821   */\n      dup11\n        /* \"#utility.yul\":4808:4830   */\n      add\n        /* \"#utility.yul\":4777:4840   */\n      tag_147\n      jump\t// in\n    tag_249:\n        /* \"#utility.yul\":4767:4840   */\n      swap5\n      pop\n        /* \"#utility.yul\":4562:4850   */\n      pop\n        /* \"#utility.yul\":4889:4891   */\n      0x60\n        /* \"#utility.yul\":4915:4968   */\n      tag_250\n        /* \"#utility.yul\":4960:4967   */\n      dup10\n        /* \"#utility.yul\":4951:4957   */\n      dup3\n        /* \"#utility.yul\":4940:4949   */\n      dup11\n        /* \"#utility.yul\":4936:4958   */\n      add\n        /* \"#utility.yul\":4915:4968   */\n      tag_150\n      jump\t// in\n    tag_250:\n        /* \"#utility.yul\":4905:4968   */\n      swap4\n      pop\n        /* \"#utility.yul\":4860:4978   */\n      pop\n        /* \"#utility.yul\":5017:5020   */\n      0x80\n        /* \"#utility.yul\":5044:5097   */\n      tag_251\n        /* \"#utility.yul\":5089:5096   */\n      dup10\n        /* \"#utility.yul\":5080:5086   */\n      dup3\n        /* \"#utility.yul\":5069:5078   */\n      dup11\n        /* \"#utility.yul\":5065:5087   */\n      add\n        /* \"#utility.yul\":5044:5097   */\n      tag_150\n      jump\t// in\n    tag_251:\n        /* \"#utility.yul\":5034:5097   */\n      swap3\n      pop\n        /* \"#utility.yul\":4988:5107   */\n      pop\n        /* \"#utility.yul\":5146:5149   */\n      0xa0\n        /* \"#utility.yul\":5173:5223   */\n      tag_252\n        /* \"#utility.yul\":5215:5222   */\n      dup10\n        /* \"#utility.yul\":5206:5212   */\n      dup3\n        /* \"#utility.yul\":5195:5204   */\n      dup11\n        /* \"#utility.yul\":5191:5213   */\n      add\n        /* \"#utility.yul\":5173:5223   */\n      tag_153\n      jump\t// in\n    tag_252:\n        /* \"#utility.yul\":5163:5223   */\n      swap2\n      pop\n        /* \"#utility.yul\":5117:5233   */\n      pop\n        /* \"#utility.yul\":3813:5240   */\n      swap3\n      swap6\n      pop\n      swap3\n      swap6\n      pop\n      swap3\n      swap6\n      jump\t// out\n        /* \"#utility.yul\":5246:5591   */\n    tag_15:\n        /* \"#utility.yul\":5313:5319   */\n      0x00\n        /* \"#utility.yul\":5362:5364   */\n      0x20\n        /* \"#utility.yul\":5350:5359   */\n      dup3\n        /* \"#utility.yul\":5341:5348   */\n      dup5\n        /* \"#utility.yul\":5337:5360   */\n      sub\n        /* \"#utility.yul\":5333:5365   */\n      slt\n        /* \"#utility.yul\":5330:5449   */\n      iszero\n      tag_254\n      jumpi\n        /* \"#utility.yul\":5368:5447   */\n      tag_255\n      tag_132\n      jump\t// in\n    tag_255:\n        /* \"#utility.yul\":5330:5449   */\n    tag_254:\n        /* \"#utility.yul\":5488:5489   */\n      0x00\n        /* \"#utility.yul\":5513:5574   */\n      tag_256\n        /* \"#utility.yul\":5566:5573   */\n      dup5\n        /* \"#utility.yul\":5557:5563   */\n      dup3\n        /* \"#utility.yul\":5546:5555   */\n      dup6\n        /* \"#utility.yul\":5542:5564   */\n      add\n        /* \"#utility.yul\":5513:5574   */\n      tag_137\n      jump\t// in\n    tag_256:\n        /* \"#utility.yul\":5503:5574   */\n      swap2\n      pop\n        /* \"#utility.yul\":5459:5584   */\n      pop\n        /* \"#utility.yul\":5246:5591   */\n      swap3\n      swap2\n      pop\n      pop\n      jump\t// out\n        /* \"#utility.yul\":5597:5715   */\n    tag_154:\n        /* \"#utility.yul\":5684:5708   */\n      tag_258\n        /* \"#utility.yul\":5702:5707   */\n      dup2\n        /* \"#utility.yul\":5684:5708   */\n      tag_148\n      jump\t// in\n    tag_258:\n        /* \"#utility.yul\":5679:5682   */\n      dup3\n        /* \"#utility.yul\":5672:5709   */\n      mstore\n        /* \"#utility.yul\":5597:5715   */\n      pop\n      pop\n      jump\t// out\n        /* \"#utility.yul\":5721:5943   */\n    tag_21:\n        /* \"#utility.yul\":5814:5818   */\n      0x00\n        /* \"#utility.yul\":5852:5854   */\n      0x20\n        /* \"#utility.yul\":5841:5850   */\n      dup3\n        /* \"#utility.yul\":5837:5855   */\n      add\n        /* \"#utility.yul\":5829:5855   */\n      swap1\n      pop\n        /* \"#utility.yul\":5865:5936   */\n      tag_260\n        /* \"#utility.yul\":5933:5934   */\n      0x00\n        /* \"#utility.yul\":5922:5931   */\n      dup4\n        /* \"#utility.yul\":5918:5935   */\n      add\n        /* \"#utility.yul\":5909:5915   */\n      dup5\n        /* \"#utility.yul\":5865:5936   */\n      tag_154\n      jump\t// in\n    tag_260:\n        /* \"#utility.yul\":5721:5943   */\n      swap3\n      swap2\n      pop\n      pop\n      jump\t// out\n        /* \"#utility.yul\":5949:6278   */\n    tag_25:\n        /* \"#utility.yul\":6008:6014   */\n      0x00\n        /* \"#utility.yul\":6057:6059   */\n      0x20\n        /* \"#utility.yul\":6045:6054   */\n      dup3\n        /* \"#utility.yul\":6036:6043   */\n      dup5\n        /* \"#utility.yul\":6032:6055   */\n      sub\n        /* \"#utility.yul\":6028:6060   */\n      slt\n        /* \"#utility.yul\":6025:6144   */\n      iszero\n      tag_262\n      jumpi\n        /* \"#utility.yul\":6063:6142   */\n      tag_263\n      tag_132\n      jump\t// in\n    tag_263:\n        /* \"#utility.yul\":6025:6144   */\n    tag_262:\n        /* \"#utility.yul\":6183:6184   */\n      0x00\n        /* \"#utility.yul\":6208:6261   */\n      tag_264\n        /* \"#utility.yul\":6253:6260   */\n      dup5\n        /* \"#utility.yul\":6244:6250   */\n      dup3\n        /* \"#utility.yul\":6233:6242   */\n      dup6\n        /* \"#utility.yul\":6229:6251   */\n      add\n        /* \"#utility.yul\":6208:6261   */\n      tag_150\n      jump\t// in\n    tag_264:\n        /* \"#utility.yul\":6198:6261   */\n      swap2\n      pop\n        /* \"#utility.yul\":6154:6271   */\n      pop\n        /* \"#utility.yul\":5949:6278   */\n      swap3\n      swap2\n      pop\n      pop\n      jump\t// out\n        /* \"#utility.yul\":6284:6426   */\n    tag_155:\n        /* \"#utility.yul\":6387:6419   */\n      tag_266\n        /* \"#utility.yul\":6413:6418   */\n      dup2\n        /* \"#utility.yul\":6387:6419   */\n      tag_135\n      jump\t// in\n    tag_266:\n        /* \"#utility.yul\":6382:6385   */\n      dup3\n        /* \"#utility.yul\":6375:6420   */\n      mstore\n        /* \"#utility.yul\":6284:6426   */\n      pop\n      pop\n      jump\t// out\n        /* \"#utility.yul\":6432:6531   */\n    tag_156:\n        /* \"#utility.yul\":6484:6490   */\n      0x00\n        /* \"#utility.yul\":6518:6523   */\n      dup2\n        /* \"#utility.yul\":6512:6524   */\n      mload\n        /* \"#utility.yul\":6502:6524   */\n      swap1\n      pop\n        /* \"#utility.yul\":6432:6531   */\n      swap2\n      swap1\n      pop\n      jump\t// out\n        /* \"#utility.yul\":6537:6706   */\n    tag_157:\n        /* \"#utility.yul\":6621:6632   */\n      0x00\n        /* \"#utility.yul\":6655:6661   */\n      dup3\n        /* \"#utility.yul\":6650:6653   */\n      dup3\n        /* \"#utility.yul\":6643:6662   */\n      mstore\n        /* \"#utility.yul\":6695:6699   */\n      0x20\n        /* \"#utility.yul\":6690:6693   */\n      dup3\n        /* \"#utility.yul\":6686:6700   */\n      add\n        /* \"#utility.yul\":6671:6700   */\n      swap1\n      pop\n        /* \"#utility.yul\":6537:6706   */\n      swap3\n      swap2\n      pop\n      pop\n      jump\t// out\n        /* \"#utility.yul\":6712:6958   */\n    tag_158:\n        /* \"#utility.yul\":6793:6794   */\n      0x00\n        /* \"#utility.yul\":6803:6916   */\n    tag_270:\n        /* \"#utility.yul\":6817:6823   */\n      dup4\n        /* \"#utility.yul\":6814:6815   */\n      dup2\n        /* \"#utility.yul\":6811:6824   */\n      lt\n        /* \"#utility.yul\":6803:6916   */\n      iszero\n      tag_272\n      jumpi\n        /* \"#utility.yul\":6902:6903   */\n      dup1\n        /* \"#utility.yul\":6897:6900   */\n      dup3\n        /* \"#utility.yul\":6893:6904   */\n      add\n        /* \"#utility.yul\":6887:6905   */\n      mload\n        /* \"#utility.yul\":6883:6884   */\n      dup2\n        /* \"#utility.yul\":6878:6881   */\n      dup5\n        /* \"#utility.yul\":6874:6885   */\n      add\n        /* \"#utility.yul\":6867:6906   */\n      mstore\n        /* \"#utility.yul\":6839:6841   */\n      0x20\n        /* \"#utility.yul\":6836:6837   */\n      dup2\n        /* \"#utility.yul\":6832:6842   */\n      add\n        /* \"#utility.yul\":6827:6842   */\n      swap1\n      pop\n        /* \"#utility.yul\":6803:6916   */\n      jump(tag_270)\n    tag_272:\n        /* \"#utility.yul\":6950:6951   */\n      0x00\n        /* \"#utility.yul\":6941:6947   */\n      dup5\n        /* \"#utility.yul\":6936:6939   */\n      dup5\n        /* \"#utility.yul\":6932:6948   */\n      add\n        /* \"#utility.yul\":6925:6952   */\n      mstore\n        /* \"#utility.yul\":6774:6958   */\n      pop\n        /* \"#utility.yul\":6712:6958   */\n      pop\n      pop\n      pop\n      jump\t// out\n        /* \"#utility.yul\":6964:7341   */\n    tag_159:\n        /* \"#utility.yul\":7052:7055   */\n      0x00\n        /* \"#utility.yul\":7080:7119   */\n      tag_274\n        /* \"#utility.yul\":7113:7118   */\n      dup3\n        /* \"#utility.yul\":7080:7119   */\n      tag_156\n      jump\t// in\n    tag_274:\n        /* \"#utility.yul\":7135:7206   */\n      tag_275\n        /* \"#utility.yul\":7199:7205   */\n      dup2\n        /* \"#utility.yul\":7194:7197   */\n      dup6\n        /* \"#utility.yul\":7135:7206   */\n      tag_157\n      jump\t// in\n    tag_275:\n        /* \"#utility.yul\":7128:7206   */\n      swap4\n      pop\n        /* \"#utility.yul\":7215:7280   */\n      tag_276\n        /* \"#utility.yul\":7273:7279   */\n      dup2\n        /* \"#utility.yul\":7268:7271   */\n      dup6\n        /* \"#utility.yul\":7261:7265   */\n      0x20\n        /* \"#utility.yul\":7254:7259   */\n      dup7\n        /* \"#utility.yul\":7250:7266   */\n      add\n        /* \"#utility.yul\":7215:7280   */\n      tag_158\n      jump\t// in\n    tag_276:\n        /* \"#utility.yul\":7305:7334   */\n      tag_277\n        /* \"#utility.yul\":7327:7333   */\n      dup2\n        /* \"#utility.yul\":7305:7334   */\n      tag_140\n      jump\t// in\n    tag_277:\n        /* \"#utility.yul\":7300:7303   */\n      dup5\n        /* \"#utility.yul\":7296:7335   */\n      add\n        /* \"#utility.yul\":7289:7335   */\n      swap2\n      pop\n        /* \"#utility.yul\":7056:7341   */\n      pop\n        /* \"#utility.yul\":6964:7341   */\n      swap3\n      swap2\n      pop\n      pop\n      jump\t// out\n        /* \"#utility.yul\":7347:7456   */\n    tag_160:\n        /* \"#utility.yul\":7428:7449   */\n      tag_279\n        /* \"#utility.yul\":7443:7448   */\n      dup2\n        /* \"#utility.yul\":7428:7449   */\n      tag_151\n      jump\t// in\n    tag_279:\n        /* \"#utility.yul\":7423:7426   */\n      dup3\n        /* \"#utility.yul\":7416:7450   */\n      mstore\n        /* \"#utility.yul\":7347:7456   */\n      pop\n      pop\n      jump\t// out\n        /* \"#utility.yul\":7462:8439   */\n    tag_28:\n        /* \"#utility.yul\":7745:7749   */\n      0x00\n        /* \"#utility.yul\":7783:7786   */\n      0xc0\n        /* \"#utility.yul\":7772:7781   */\n      dup3\n        /* \"#utility.yul\":7768:7787   */\n      add\n        /* \"#utility.yul\":7760:7787   */\n      swap1\n      pop\n        /* \"#utility.yul\":7797:7884   */\n      tag_281\n        /* \"#utility.yul\":7881:7882   */\n      0x00\n        /* \"#utility.yul\":7870:7879   */\n      dup4\n        /* \"#utility.yul\":7866:7883   */\n      add\n        /* \"#utility.yul\":7857:7863   */\n      dup10\n        /* \"#utility.yul\":7797:7884   */\n      tag_155\n      jump\t// in\n    tag_281:\n        /* \"#utility.yul\":7931:7940   */\n      dup2\n        /* \"#utility.yul\":7925:7929   */\n      dup2\n        /* \"#utility.yul\":7921:7941   */\n      sub\n        /* \"#utility.yul\":7916:7918   */\n      0x20\n        /* \"#utility.yul\":7905:7914   */\n      dup4\n        /* \"#utility.yul\":7901:7919   */\n      add\n        /* \"#utility.yul\":7894:7942   */\n      mstore\n        /* \"#utility.yul\":7959:8037   */\n      tag_282\n        /* \"#utility.yul\":8032:8036   */\n      dup2\n        /* \"#utility.yul\":8023:8029   */\n      dup9\n        /* \"#utility.yul\":7959:8037   */\n      tag_159\n      jump\t// in\n    tag_282:\n        /* \"#utility.yul\":7951:8037   */\n      swap1\n      pop\n        /* \"#utility.yul\":8084:8093   */\n      dup2\n        /* \"#utility.yul\":8078:8082   */\n      dup2\n        /* \"#utility.yul\":8074:8094   */\n      sub\n        /* \"#utility.yul\":8069:8071   */\n      0x40\n        /* \"#utility.yul\":8058:8067   */\n      dup4\n        /* \"#utility.yul\":8054:8072   */\n      add\n        /* \"#utility.yul\":8047:8095   */\n      mstore\n        /* \"#utility.yul\":8112:8190   */\n      tag_283\n        /* \"#utility.yul\":8185:8189   */\n      dup2\n        /* \"#utility.yul\":8176:8182   */\n      dup8\n        /* \"#utility.yul\":8112:8190   */\n      tag_159\n      jump\t// in\n    tag_283:\n        /* \"#utility.yul\":8104:8190   */\n      swap1\n      pop\n        /* \"#utility.yul\":8200:8272   */\n      tag_284\n        /* \"#utility.yul\":8268:8270   */\n      0x60\n        /* \"#utility.yul\":8257:8266   */\n      dup4\n        /* \"#utility.yul\":8253:8271   */\n      add\n        /* \"#utility.yul\":8244:8250   */\n      dup7\n        /* \"#utility.yul\":8200:8272   */\n      tag_154\n      jump\t// in\n    tag_284:\n        /* \"#utility.yul\":8282:8355   */\n      tag_285\n        /* \"#utility.yul\":8350:8353   */\n      0x80\n        /* \"#utility.yul\":8339:8348   */\n      dup4\n        /* \"#utility.yul\":8335:8354   */\n      add\n        /* \"#utility.yul\":8326:8332   */\n      dup6\n        /* \"#utility.yul\":8282:8355   */\n      tag_154\n      jump\t// in\n    tag_285:\n        /* \"#utility.yul\":8365:8432   */\n      tag_286\n        /* \"#utility.yul\":8427:8430   */\n      0xa0\n        /* \"#utility.yul\":8416:8425   */\n      dup4\n        /* \"#utility.yul\":8412:8431   */\n      add\n        /* \"#utility.yul\":8403:8409   */\n      dup5\n        /* \"#utility.yul\":8365:8432   */\n      tag_160\n      jump\t// in\n    tag_286:\n        /* \"#utility.yul\":7462:8439   */\n      swap8\n      swap7\n      pop\n      pop\n      pop\n      pop\n      pop\n      pop\n      pop\n      jump\t// out\n        /* \"#utility.yul\":8445:8541   */\n    tag_161:\n        /* \"#utility.yul\":8482:8489   */\n      0x00\n        /* \"#utility.yul\":8511:8535   */\n      tag_288\n        /* \"#utility.yul\":8529:8534   */\n      dup3\n        /* \"#utility.yul\":8511:8535   */\n      tag_134\n      jump\t// in\n    tag_288:\n        /* \"#utility.yul\":8500:8535   */\n      swap1\n      pop\n        /* \"#utility.yul\":8445:8541   */\n      swap2\n      swap1\n      pop\n      jump\t// out\n        /* \"#utility.yul\":8547:8669   */\n    tag_162:\n        /* \"#utility.yul\":8620:8644   */\n      tag_290\n        /* \"#utility.yul\":8638:8643   */\n      dup2\n        /* \"#utility.yul\":8620:8644   */\n      tag_161\n      jump\t// in\n    tag_290:\n        /* \"#utility.yul\":8613:8618   */\n      dup2\n        /* \"#utility.yul\":8610:8645   */\n      eq\n        /* \"#utility.yul\":8600:8663   */\n      tag_291\n      jumpi\n        /* \"#utility.yul\":8659:8660   */\n      0x00\n        /* \"#utility.yul\":8656:8657   */\n      dup1\n        /* \"#utility.yul\":8649:8661   */\n      revert\n        /* \"#utility.yul\":8600:8663   */\n    tag_291:\n        /* \"#utility.yul\":8547:8669   */\n      pop\n      jump\t// out\n        /* \"#utility.yul\":8675:8814   */\n    tag_163:\n        /* \"#utility.yul\":8721:8726   */\n      0x00\n        /* \"#utility.yul\":8759:8765   */\n      dup2\n        /* \"#utility.yul\":8746:8766   */\n      calldataload\n        /* \"#utility.yul\":8737:8766   */\n      swap1\n      pop\n        /* \"#utility.yul\":8775:8808   */\n      tag_293\n        /* \"#utility.yul\":8802:8807   */\n      dup2\n        /* \"#utility.yul\":8775:8808   */\n      tag_162\n      jump\t// in\n    tag_293:\n        /* \"#utility.yul\":8675:8814   */\n      swap3\n      swap2\n      pop\n      pop\n      jump\t// out\n        /* \"#utility.yul\":8820:9149   */\n    tag_32:\n        /* \"#utility.yul\":8879:8885   */\n      0x00\n        /* \"#utility.yul\":8928:8930   */\n      0x20\n        /* \"#utility.yul\":8916:8925   */\n      dup3\n        /* \"#utility.yul\":8907:8914   */\n      dup5\n        /* \"#utility.yul\":8903:8926   */\n      sub\n        /* \"#utility.yul\":8899:8931   */\n      slt\n        /* \"#utility.yul\":8896:9015   */\n      iszero\n      tag_295\n      jumpi\n        /* \"#utility.yul\":8934:9013   */\n      tag_296\n      tag_132\n      jump\t// in\n    tag_296:\n        /* \"#utility.yul\":8896:9015   */\n    tag_295:\n        /* \"#utility.yul\":9054:9055   */\n      0x00\n        /* \"#utility.yul\":9079:9132   */\n      tag_297\n        /* \"#utility.yul\":9124:9131   */\n      dup5\n        /* \"#utility.yul\":9115:9121   */\n      dup3\n        /* \"#utility.yul\":9104:9113   */\n      dup6\n        /* \"#utility.yul\":9100:9122   */\n      add\n        /* \"#utility.yul\":9079:9132   */\n      tag_163\n      jump\t// in\n    tag_297:\n        /* \"#utility.yul\":9069:9132   */\n      swap2\n      pop\n        /* \"#utility.yul\":9025:9142   */\n      pop\n        /* \"#utility.yul\":8820:9149   */\n      swap3\n      swap2\n      pop\n      pop\n      jump\t// out\n        /* \"#utility.yul\":9155:9365   */\n    tag_35:\n        /* \"#utility.yul\":9242:9246   */\n      0x00\n        /* \"#utility.yul\":9280:9282   */\n      0x20\n        /* \"#utility.yul\":9269:9278   */\n      dup3\n        /* \"#utility.yul\":9265:9283   */\n      add\n        /* \"#utility.yul\":9257:9283   */\n      swap1\n      pop\n        /* \"#utility.yul\":9293:9358   */\n      tag_299\n        /* \"#utility.yul\":9355:9356   */\n      0x00\n        /* \"#utility.yul\":9344:9353   */\n      dup4\n        /* \"#utility.yul\":9340:9357   */\n      add\n        /* \"#utility.yul\":9331:9337   */\n      dup5\n        /* \"#utility.yul\":9293:9358   */\n      tag_160\n      jump\t// in\n    tag_299:\n        /* \"#utility.yul\":9155:9365   */\n      swap3\n      swap2\n      pop\n      pop\n      jump\t// out\n        /* \"#utility.yul\":9371:9544   */\n    tag_164:\n        /* \"#utility.yul\":9511:9536   */\n      0x6f6e6c79206f776e65722063616e20616464206b696473000000000000000000\n        /* \"#utility.yul\":9507:9508   */\n      0x00\n        /* \"#utility.yul\":9499:9505   */\n      dup3\n        /* \"#utility.yul\":9495:9509   */\n      add\n        /* \"#utility.yul\":9488:9537   */\n      mstore\n        /* \"#utility.yul\":9371:9544   */\n      pop\n      jump\t// out\n        /* \"#utility.yul\":9550:9916   */\n    tag_165:\n        /* \"#utility.yul\":9692:9695   */\n      0x00\n        /* \"#utility.yul\":9713:9780   */\n      tag_302\n        /* \"#utility.yul\":9777:9779   */\n      0x17\n        /* \"#utility.yul\":9772:9775   */\n      dup4\n        /* \"#utility.yul\":9713:9780   */\n      tag_157\n      jump\t// in\n    tag_302:\n        /* \"#utility.yul\":9706:9780   */\n      swap2\n      pop\n        /* \"#utility.yul\":9789:9882   */\n      tag_303\n        /* \"#utility.yul\":9878:9881   */\n      dup3\n        /* \"#utility.yul\":9789:9882   */\n      tag_164\n      jump\t// in\n    tag_303:\n        /* \"#utility.yul\":9907:9909   */\n      0x20\n        /* \"#utility.yul\":9902:9905   */\n      dup3\n        /* \"#utility.yul\":9898:9910   */\n      add\n        /* \"#utility.yul\":9891:9910   */\n      swap1\n      pop\n        /* \"#utility.yul\":9550:9916   */\n      swap2\n      swap1\n      pop\n      jump\t// out\n        /* \"#utility.yul\":9922:10341   */\n    tag_42:\n        /* \"#utility.yul\":10088:10092   */\n      0x00\n        /* \"#utility.yul\":10126:10128   */\n      0x20\n        /* \"#utility.yul\":10115:10124   */\n      dup3\n        /* \"#utility.yul\":10111:10129   */\n      add\n        /* \"#utility.yul\":10103:10129   */\n      swap1\n      pop\n        /* \"#utility.yul\":10175:10184   */\n      dup2\n        /* \"#utility.yul\":10169:10173   */\n      dup2\n        /* \"#utility.yul\":10165:10185   */\n      sub\n        /* \"#utility.yul\":10161:10162   */\n      0x00\n        /* \"#utility.yul\":10150:10159   */\n      dup4\n        /* \"#utility.yul\":10146:10163   */\n      add\n        /* \"#utility.yul\":10139:10186   */\n      mstore\n        /* \"#utility.yul\":10203:10334   */\n      tag_305\n        /* \"#utility.yul\":10329:10333   */\n      dup2\n        /* \"#utility.yul\":10203:10334   */\n      tag_165\n      jump\t// in\n    tag_305:\n        /* \"#utility.yul\":10195:10334   */\n      swap1\n      pop\n        /* \"#utility.yul\":9922:10341   */\n      swap2\n      swap1\n      pop\n      jump\t// out\n        /* \"#utility.yul\":10347:10527   */\n    tag_166:\n        /* \"#utility.yul\":10395:10472   */\n      0x4e487b7100000000000000000000000000000000000000000000000000000000\n        /* \"#utility.yul\":10392:10393   */\n      0x00\n        /* \"#utility.yul\":10385:10473   */\n      mstore\n        /* \"#utility.yul\":10492:10496   */\n      0x22\n        /* \"#utility.yul\":10489:10490   */\n      0x04\n        /* \"#utility.yul\":10482:10497   */\n      mstore\n        /* \"#utility.yul\":10516:10520   */\n      0x24\n        /* \"#utility.yul\":10513:10514   */\n      0x00\n        /* \"#utility.yul\":10506:10521   */\n      revert\n        /* \"#utility.yul\":10533:10853   */\n    tag_76:\n        /* \"#utility.yul\":10577:10583   */\n      0x00\n        /* \"#utility.yul\":10614:10615   */\n      0x02\n        /* \"#utility.yul\":10608:10612   */\n      dup3\n        /* \"#utility.yul\":10604:10616   */\n      div\n        /* \"#utility.yul\":10594:10616   */\n      swap1\n      pop\n        /* \"#utility.yul\":10661:10662   */\n      0x01\n        /* \"#utility.yul\":10655:10659   */\n      dup3\n        /* \"#utility.yul\":10651:10663   */\n      and\n        /* \"#utility.yul\":10682:10700   */\n      dup1\n        /* \"#utility.yul\":10672:10753   */\n      tag_308\n      jumpi\n        /* \"#utility.yul\":10738:10742   */\n      0x7f\n        /* \"#utility.yul\":10730:10736   */\n      dup3\n        /* \"#utility.yul\":10726:10743   */\n      and\n        /* \"#utility.yul\":10716:10743   */\n      swap2\n      pop\n        /* \"#utility.yul\":10672:10753   */\n    tag_308:\n        /* \"#utility.yul\":10800:10802   */\n      0x20\n        /* \"#utility.yul\":10792:10798   */\n      dup3\n        /* \"#utility.yul\":10789:10803   */\n      lt\n        /* \"#utility.yul\":10769:10787   */\n      dup2\n        /* \"#utility.yul\":10766:10804   */\n      sub\n        /* \"#utility.yul\":10763:10847   */\n      tag_309\n      jumpi\n        /* \"#utility.yul\":10819:10837   */\n      tag_310\n      tag_166\n      jump\t// in\n    tag_310:\n        /* \"#utility.yul\":10763:10847   */\n    tag_309:\n        /* \"#utility.yul\":10584:10853   */\n      pop\n        /* \"#utility.yul\":10533:10853   */\n      swap2\n      swap1\n      pop\n      jump\t// out\n        /* \"#utility.yul\":10859:11000   */\n    tag_167:\n        /* \"#utility.yul\":10908:10912   */\n      0x00\n        /* \"#utility.yul\":10931:10934   */\n      dup2\n        /* \"#utility.yul\":10923:10934   */\n      swap1\n      pop\n        /* \"#utility.yul\":10954:10957   */\n      dup2\n        /* \"#utility.yul\":10951:10952   */\n      0x00\n        /* \"#utility.yul\":10944:10958   */\n      mstore\n        /* \"#utility.yul\":10988:10992   */\n      0x20\n        /* \"#utility.yul\":10985:10986   */\n      0x00\n        /* \"#utility.yul\":10975:10993   */\n      keccak256\n        /* \"#utility.yul\":10967:10993   */\n      swap1\n      pop\n        /* \"#utility.yul\":10859:11000   */\n      swap2\n      swap1\n      pop\n      jump\t// out\n        /* \"#utility.yul\":11006:11099   */\n    tag_168:\n        /* \"#utility.yul\":11043:11049   */\n      0x00\n        /* \"#utility.yul\":11090:11092   */\n      0x20\n        /* \"#utility.yul\":11085:11087   */\n      0x1f\n        /* \"#utility.yul\":11078:11083   */\n      dup4\n        /* \"#utility.yul\":11074:11088   */\n      add\n        /* \"#utility.yul\":11070:11093   */\n      div\n        /* \"#utility.yul\":11060:11093   */\n      swap1\n      pop\n        /* \"#utility.yul\":11006:11099   */\n      swap2\n      swap1\n      pop\n      jump\t// out\n        /* \"#utility.yul\":11105:11212   */\n    tag_169:\n        /* \"#utility.yul\":11149:11157   */\n      0x00\n        /* \"#utility.yul\":11199:11204   */\n      dup3\n        /* \"#utility.yul\":11193:11197   */\n      dup3\n        /* \"#utility.yul\":11189:11205   */\n      shl\n        /* \"#utility.yul\":11168:11205   */\n      swap1\n      pop\n        /* \"#utility.yul\":11105:11212   */\n      swap3\n      swap2\n      pop\n      pop\n      jump\t// out\n        /* \"#utility.yul\":11218:11611   */\n    tag_170:\n        /* \"#utility.yul\":11287:11293   */\n      0x00\n        /* \"#utility.yul\":11337:11338   */\n      0x08\n        /* \"#utility.yul\":11325:11335   */\n      dup4\n        /* \"#utility.yul\":11321:11339   */\n      mul\n        /* \"#utility.yul\":11360:11457   */\n      tag_315\n        /* \"#utility.yul\":11390:11456   */\n      0xffffffffffffffffffffffffffffffffffffffffffffffffffffffffffffffff\n        /* \"#utility.yul\":11379:11388   */\n      dup3\n        /* \"#utility.yul\":11360:11457   */\n      tag_169\n      jump\t// in\n    tag_315:\n        /* \"#utility.yul\":11478:11517   */\n      tag_316\n        /* \"#utility.yul\":11508:11516   */\n      dup7\n        /* \"#utility.yul\":11497:11506   */\n      dup4\n        /* \"#utility.yul\":11478:11517   */\n      tag_169\n      jump\t// in\n    tag_316:\n        /* \"#utility.yul\":11466:11517   */\n      swap6\n      pop\n        /* \"#utility.yul\":11550:11554   */\n      dup1\n        /* \"#utility.yul\":11546:11555   */\n      not\n        /* \"#utility.yul\":11539:11544   */\n      dup5\n        /* \"#utility.yul\":11535:11556   */\n      and\n        /* \"#utility.yul\":11526:11556   */\n      swap4\n      pop\n        /* \"#utility.yul\":11599:11603   */\n      dup1\n        /* \"#utility.yul\":11589:11597   */\n      dup7\n        /* \"#utility.yul\":11585:11604   */\n      and\n        /* \"#utility.yul\":11578:11583   */\n      dup5\n        /* \"#utility.yul\":11575:11605   */\n      or\n        /* \"#utility.yul\":11565:11605   */\n      swap3\n      pop\n        /* \"#utility.yul\":11294:11611   */\n      pop\n      pop\n        /* \"#utility.yul\":11218:11611   */\n      swap4\n      swap3\n      pop\n      pop\n      pop\n      jump\t// out\n        /* \"#utility.yul\":11617:11677   */\n    tag_171:\n        /* \"#utility.yul\":11645:11648   */\n      0x00\n        /* \"#utility.yul\":11666:11671   */\n      dup2\n        /* \"#utility.yul\":11659:11671   */\n      swap1\n      pop\n        /* \"#utility.yul\":11617:11677   */\n      swap2\n      swap1\n      pop\n      jump\t// out\n        /* \"#utility.yul\":11683:11825   */\n    tag_172:\n        /* \"#utility.yul\":11733:11742   */\n      0x00\n        /* \"#utility.yul\":11766:11819   */\n      tag_319\n        /* \"#utility.yul\":11784:11818   */\n      tag_320\n        /* \"#utility.yul\":11793:11817   */\n      tag_321\n        /* \"#utility.yul\":11811:11816   */\n      dup5\n        /* \"#utility.yul\":11793:11817   */\n      tag_148\n      jump\t// in\n    tag_321:\n        /* \"#utility.yul\":11784:11818   */\n      tag_171\n      jump\t// in\n    tag_320:\n        /* \"#utility.yul\":11766:11819   */\n      tag_148\n      jump\t// in\n    tag_319:\n        /* \"#utility.yul\":11753:11819   */\n      swap1\n      pop\n        /* \"#utility.yul\":11683:11825   */\n      swap2\n      swap1\n      pop\n      jump\t// out\n        /* \"#utility.yul\":11831:11906   */\n    tag_173:\n        /* \"#utility.yul\":11874:11877   */\n      0x00\n        /* \"#utility.yul\":11895:11900   */\n      dup2\n        /* \"#utility.yul\":11888:11900   */\n      swap1\n      pop\n        /* \"#utility.yul\":11831:11906   */\n      swap2\n      swap1\n      pop\n      jump\t// out\n        /* \"#utility.yul\":11912:12181   */\n    tag_174:\n        /* \"#utility.yul\":12022:12061   */\n      tag_324\n        /* \"#utility.yul\":12053:12060   */\n      dup4\n        /* \"#utility.yul\":12022:12061   */\n      tag_172\n      jump\t// in\n    tag_324:\n        /* \"#utility.yul\":12083:12174   */\n      tag_325\n        /* \"#utility.yul\":12132:12173   */\n      tag_326\n        /* \"#utility.yul\":12156:12172   */\n      dup3\n        /* \"#utility.yul\":12132:12173   */\n      tag_173\n      jump\t// in\n    tag_326:\n        /* \"#utility.yul\":12124:12130   */\n      dup5\n        /* \"#utility.yul\":12117:12121   */\n      dup5\n        /* \"#utility.yul\":12111:12122   */\n      sload\n        /* \"#utility.yul\":12083:12174   */\n      tag_170\n      jump\t// in\n    tag_325:\n        /* \"#utility.yul\":12077:12081   */\n      dup3\n        /* \"#utility.yul\":12070:12175   */\n      sstore\n        /* \"#utility.yul\":11988:12181   */\n      pop\n        /* \"#utility.yul\":11912:12181   */\n      pop\n      pop\n      pop\n      jump\t// out\n        /* \"#utility.yul\":12187:12260   */\n    tag_175:\n        /* \"#utility.yul\":12232:12235   */\n      0x00\n        /* \"#utility.yul\":12187:12260   */\n      swap1\n      jump\t// out\n        /* \"#utility.yul\":12266:12455   */\n    tag_176:\n        /* \"#utility.yul\":12343:12375   */\n      tag_329\n      tag_175\n      jump\t// in\n    tag_329:\n        /* \"#utility.yul\":12384:12449   */\n      tag_330\n        /* \"#utility.yul\":12442:12448   */\n      dup2\n        /* \"#utility.yul\":12434:12440   */\n      dup5\n        /* \"#utility.yul\":12428:12432   */\n      dup5\n        /* \"#utility.yul\":12384:12449   */\n      tag_174\n      jump\t// in\n    tag_330:\n        /* \"#utility.yul\":12319:12455   */\n      pop\n        /* \"#utility.yul\":12266:12455   */\n      pop\n      pop\n      jump\t// out\n        /* \"#utility.yul\":12461:12647   */\n    tag_177:\n        /* \"#utility.yul\":12521:12641   */\n    tag_332:\n        /* \"#utility.yul\":12538:12541   */\n      dup2\n        /* \"#utility.yul\":12531:12536   */\n      dup2\n        /* \"#utility.yul\":12528:12542   */\n      lt\n        /* \"#utility.yul\":12521:12641   */\n      iszero\n      tag_334\n      jumpi\n        /* \"#utility.yul\":12592:12631   */\n      tag_335\n        /* \"#utility.yul\":12629:12630   */\n      0x00\n        /* \"#utility.yul\":12622:12627   */\n      dup3\n        /* \"#utility.yul\":12592:12631   */\n      tag_176\n      jump\t// in\n    tag_335:\n        /* \"#utility.yul\":12565:12566   */\n      0x01\n        /* \"#utility.yul\":12558:12563   */\n      dup2\n        /* \"#utility.yul\":12554:12567   */\n      add\n        /* \"#utility.yul\":12545:12567   */\n      swap1\n      pop\n        /* \"#utility.yul\":12521:12641   */\n      jump(tag_332)\n    tag_334:\n        /* \"#utility.yul\":12461:12647   */\n      pop\n      pop\n      jump\t// out\n        /* \"#utility.yul\":12653:13196   */\n    tag_178:\n        /* \"#utility.yul\":12754:12756   */\n      0x1f\n        /* \"#utility.yul\":12749:12752   */\n      dup3\n        /* \"#utility.yul\":12746:12757   */\n      gt\n        /* \"#utility.yul\":12743:13189   */\n      iszero\n      tag_337\n      jumpi\n        /* \"#utility.yul\":12788:12826   */\n      tag_338\n        /* \"#utility.yul\":12820:12825   */\n      dup2\n        /* \"#utility.yul\":12788:12826   */\n      tag_167\n      jump\t// in\n    tag_338:\n        /* \"#utility.yul\":12872:12901   */\n      tag_339\n        /* \"#utility.yul\":12890:12900   */\n      dup5\n        /* \"#utility.yul\":12872:12901   */\n      tag_168\n      jump\t// in\n    tag_339:\n        /* \"#utility.yul\":12862:12870   */\n      dup2\n        /* \"#utility.yul\":12858:12902   */\n      add\n        /* \"#utility.yul\":13055:13057   */\n      0x20\n        /* \"#utility.yul\":13043:13053   */\n      dup6\n        /* \"#utility.yul\":13040:13058   */\n      lt\n        /* \"#utility.yul\":13037:13086   */\n      iszero\n      tag_340\n      jumpi\n        /* \"#utility.yul\":13076:13084   */\n      dup2\n        /* \"#utility.yul\":13061:13084   */\n      swap1\n      pop\n        /* \"#utility.yul\":13037:13086   */\n    tag_340:\n        /* \"#utility.yul\":13099:13179   */\n      tag_341\n        /* \"#utility.yul\":13155:13177   */\n      tag_342\n        /* \"#utility.yul\":13173:13176   */\n      dup6\n        /* \"#utility.yul\":13155:13177   */\n      tag_168\n      jump\t// in\n    tag_342:\n        /* \"#utility.yul\":13145:13153   */\n      dup4\n        /* \"#utility.yul\":13141:13178   */\n      add\n        /* \"#utility.yul\":13128:13139   */\n      dup3\n        /* \"#utility.yul\":13099:13179   */\n      tag_177\n      jump\t// in\n    tag_341:\n        /* \"#utility.yul\":12758:13189   */\n      pop\n      pop\n        /* \"#utility.yul\":12743:13189   */\n    tag_337:\n        /* \"#utility.yul\":12653:13196   */\n      pop\n      pop\n      pop\n      jump\t// out\n        /* \"#utility.yul\":13202:13319   */\n    tag_179:\n        /* \"#utility.yul\":13256:13264   */\n      0x00\n        /* \"#utility.yul\":13306:13311   */\n      dup3\n        /* \"#utility.yul\":13300:13304   */\n      dup3\n        /* \"#utility.yul\":13296:13312   */\n      shr\n        /* \"#utility.yul\":13275:13312   */\n      swap1\n      pop\n        /* \"#utility.yul\":13202:13319   */\n      swap3\n      swap2\n      pop\n      pop\n      jump\t// out\n        /* \"#utility.yul\":13325:13494   */\n    tag_180:\n        /* \"#utility.yul\":13369:13375   */\n      0x00\n        /* \"#utility.yul\":13402:13453   */\n      tag_345\n        /* \"#utility.yul\":13450:13451   */\n      0x00\n        /* \"#utility.yul\":13446:13452   */\n      not\n        /* \"#utility.yul\":13438:13443   */\n      dup5\n        /* \"#utility.yul\":13435:13436   */\n      0x08\n        /* \"#utility.yul\":13431:13444   */\n      mul\n        /* \"#utility.yul\":13402:13453   */\n      tag_179\n      jump\t// in\n    tag_345:\n        /* \"#utility.yul\":13398:13454   */\n      not\n        /* \"#utility.yul\":13483:13487   */\n      dup1\n        /* \"#utility.yul\":13477:13481   */\n      dup4\n        /* \"#utility.yul\":13473:13488   */\n      and\n        /* \"#utility.yul\":13463:13488   */\n      swap2\n      pop\n        /* \"#utility.yul\":13376:13494   */\n      pop\n        /* \"#utility.yul\":13325:13494   */\n      swap3\n      swap2\n      pop\n      pop\n      jump\t// out\n        /* \"#utility.yul\":13499:13794   */\n    tag_181:\n        /* \"#utility.yul\":13575:13579   */\n      0x00\n        /* \"#utility.yul\":13721:13750   */\n      tag_347\n        /* \"#utility.yul\":13746:13749   */\n      dup4\n        /* \"#utility.yul\":13740:13744   */\n      dup4\n        /* \"#utility.yul\":13721:13750   */\n      tag_180\n      jump\t// in\n    tag_347:\n        /* \"#utility.yul\":13713:13750   */\n      swap2\n      pop\n        /* \"#utility.yul\":13783:13786   */\n      dup3\n        /* \"#utility.yul\":13780:13781   */\n      0x02\n        /* \"#utility.yul\":13776:13787   */\n      mul\n        /* \"#utility.yul\":13770:13774   */\n      dup3\n        /* \"#utility.yul\":13767:13788   */\n      or\n        /* \"#utility.yul\":13759:13788   */\n      swap1\n      pop\n        /* \"#utility.yul\":13499:13794   */\n      swap3\n      swap2\n      pop\n      pop\n      jump\t// out\n        /* \"#utility.yul\":13799:15194   */\n    tag_46:\n        /* \"#utility.yul\":13916:13953   */\n      tag_349\n        /* \"#utility.yul\":13949:13952   */\n      dup3\n        /* \"#utility.yul\":13916:13953   */\n      tag_156\n      jump\t// in\n    tag_349:\n        /* \"#utility.yul\":14018:14036   */\n      0xffffffffffffffff\n        /* \"#utility.yul\":14010:14016   */\n      dup2\n        /* \"#utility.yul\":14007:14037   */\n      gt\n        /* \"#utility.yul\":14004:14060   */\n      iszero\n      tag_350\n      jumpi\n        /* \"#utility.yul\":14040:14058   */\n      tag_351\n      tag_141\n      jump\t// in\n    tag_351:\n        /* \"#utility.yul\":14004:14060   */\n    tag_350:\n        /* \"#utility.yul\":14084:14122   */\n      tag_352\n        /* \"#utility.yul\":14116:14120   */\n      dup3\n        /* \"#utility.yul\":14110:14121   */\n      sload\n        /* \"#utility.yul\":14084:14122   */\n      tag_76\n      jump\t// in\n    tag_352:\n        /* \"#utility.yul\":14169:14236   */\n      tag_353\n        /* \"#utility.yul\":14229:14235   */\n      dup3\n        /* \"#utility.yul\":14221:14227   */\n      dup3\n        /* \"#utility.yul\":14215:14219   */\n      dup6\n        /* \"#utility.yul\":14169:14236   */\n      tag_178\n      jump\t// in\n    tag_353:\n        /* \"#utility.yul\":14263:14264   */\n      0x00\n        /* \"#utility.yul\":14287:14291   */\n      0x20\n        /* \"#utility.yul\":14274:14291   */\n      swap1\n      pop\n        /* \"#utility.yul\":14319:14321   */\n      0x1f\n        /* \"#utility.yul\":14311:14317   */\n      dup4\n        /* \"#utility.yul\":14308:14322   */\n      gt\n        /* \"#utility.yul\":14336:14337   */\n      0x01\n        /* \"#utility.yul\":14331:14949   */\n      dup2\n      eq\n      tag_355\n      jumpi\n        /* \"#utility.yul\":14993:14994   */\n      0x00\n        /* \"#utility.yul\":15010:15016   */\n      dup5\n        /* \"#utility.yul\":15007:15084   */\n      iszero\n      tag_356\n      jumpi\n        /* \"#utility.yul\":15059:15068   */\n      dup3\n        /* \"#utility.yul\":15054:15057   */\n      dup8\n        /* \"#utility.yul\":15050:15069   */\n      add\n        /* \"#utility.yul\":15044:15070   */\n      mload\n        /* \"#utility.yul\":15035:15070   */\n      swap1\n      pop\n        /* \"#utility.yul\":15007:15084   */\n    tag_356:\n        /* \"#utility.yul\":15110:15177   */\n      tag_357\n        /* \"#utility.yul\":15170:15176   */\n      dup6\n        /* \"#utility.yul\":15163:15168   */\n      dup3\n        /* \"#utility.yul\":15110:15177   */\n      tag_181\n      jump\t// in\n    tag_357:\n        /* \"#utility.yul\":15104:15108   */\n      dup7\n        /* \"#utility.yul\":15097:15178   */\n      sstore\n        /* \"#utility.yul\":14966:15188   */\n      pop\n        /* \"#utility.yul\":14301:15188   */\n      jump(tag_354)\n        /* \"#utility.yul\":14331:14949   */\n    tag_355:\n        /* \"#utility.yul\":14383:14387   */\n      0x1f\n        /* \"#utility.yul\":14379:14388   */\n      not\n        /* \"#utility.yul\":14371:14377   */\n      dup5\n        /* \"#utility.yul\":14367:14389   */\n      and\n        /* \"#utility.yul\":14417:14454   */\n      tag_358\n        /* \"#utility.yul\":14449:14453   */\n      dup7\n        /* \"#utility.yul\":14417:14454   */\n      tag_167\n      jump\t// in\n    tag_358:\n        /* \"#utility.yul\":14476:14477   */\n      0x00\n        /* \"#utility.yul\":14490:14698   */\n    tag_359:\n        /* \"#utility.yul\":14504:14511   */\n      dup3\n        /* \"#utility.yul\":14501:14502   */\n      dup2\n        /* \"#utility.yul\":14498:14512   */\n      lt\n        /* \"#utility.yul\":14490:14698   */\n      iszero\n      tag_361\n      jumpi\n        /* \"#utility.yul\":14583:14592   */\n      dup5\n        /* \"#utility.yul\":14578:14581   */\n      dup10\n        /* \"#utility.yul\":14574:14593   */\n      add\n        /* \"#utility.yul\":14568:14594   */\n      mload\n        /* \"#utility.yul\":14560:14566   */\n      dup3\n        /* \"#utility.yul\":14553:14595   */\n      sstore\n        /* \"#utility.yul\":14634:14635   */\n      0x01\n        /* \"#utility.yul\":14626:14632   */\n      dup3\n        /* \"#utility.yul\":14622:14636   */\n      add\n        /* \"#utility.yul\":14612:14636   */\n      swap2\n      pop\n        /* \"#utility.yul\":14681:14683   */\n      0x20\n        /* \"#utility.yul\":14670:14679   */\n      dup6\n        /* \"#utility.yul\":14666:14684   */\n      add\n        /* \"#utility.yul\":14653:14684   */\n      swap5\n      pop\n        /* \"#utility.yul\":14527:14531   */\n      0x20\n        /* \"#utility.yul\":14524:14525   */\n      dup2\n        /* \"#utility.yul\":14520:14532   */\n      add\n        /* \"#utility.yul\":14515:14532   */\n      swap1\n      pop\n        /* \"#utility.yul\":14490:14698   */\n      jump(tag_359)\n    tag_361:\n        /* \"#utility.yul\":14726:14732   */\n      dup7\n        /* \"#utility.yul\":14717:14724   */\n      dup4\n        /* \"#utility.yul\":14714:14733   */\n      lt\n        /* \"#utility.yul\":14711:14890   */\n      iszero\n      tag_362\n      jumpi\n        /* \"#utility.yul\":14784:14793   */\n      dup5\n        /* \"#utility.yul\":14779:14782   */\n      dup10\n        /* \"#utility.yul\":14775:14794   */\n      add\n        /* \"#utility.yul\":14769:14795   */\n      mload\n        /* \"#utility.yul\":14827:14875   */\n      tag_363\n        /* \"#utility.yul\":14869:14873   */\n      0x1f\n        /* \"#utility.yul\":14861:14867   */\n      dup10\n        /* \"#utility.yul\":14857:14874   */\n      and\n        /* \"#utility.yul\":14846:14855   */\n      dup3\n        /* \"#utility.yul\":14827:14875   */\n      tag_180\n      jump\t// in\n    tag_363:\n        /* \"#utility.yul\":14819:14825   */\n      dup4\n        /* \"#utility.yul\":14812:14876   */\n      sstore\n        /* \"#utility.yul\":14734:14890   */\n      pop\n        /* \"#utility.yul\":14711:14890   */\n    tag_362:\n        /* \"#utility.yul\":14936:14937   */\n      0x01\n        /* \"#utility.yul\":14932:14933   */\n      0x02\n        /* \"#utility.yul\":14924:14930   */\n      dup9\n        /* \"#utility.yul\":14920:14934   */\n      mul\n        /* \"#utility.yul\":14916:14938   */\n      add\n        /* \"#utility.yul\":14910:14914   */\n      dup9\n        /* \"#utility.yul\":14903:14939   */\n      sstore\n        /* \"#utility.yul\":14338:14949   */\n      pop\n      pop\n      pop\n        /* \"#utility.yul\":14301:15188   */\n    tag_354:\n      pop\n        /* \"#utility.yul\":13891:15194   */\n      pop\n      pop\n      pop\n        /* \"#utility.yul\":13799:15194   */\n      pop\n      pop\n      jump\t// out\n        /* \"#utility.yul\":15200:15380   */\n    tag_53:\n        /* \"#utility.yul\":15248:15325   */\n      0x4e487b7100000000000000000000000000000000000000000000000000000000\n        /* \"#utility.yul\":15245:15246   */\n      0x00\n        /* \"#utility.yul\":15238:15326   */\n      mstore\n        /* \"#utility.yul\":15345:15349   */\n      0x32\n        /* \"#utility.yul\":15342:15343   */\n      0x04\n        /* \"#utility.yul\":15335:15350   */\n      mstore\n        /* \"#utility.yul\":15369:15373   */\n      0x24\n        /* \"#utility.yul\":15366:15367   */\n      0x00\n        /* \"#utility.yul\":15359:15374   */\n      revert\n        /* \"#utility.yul\":15386:15613   */\n    tag_182:\n        /* \"#utility.yul\":15526:15560   */\n      0x796f7520617265206e6f742074686520726967687466756c206b696420746f20\n        /* \"#utility.yul\":15522:15523   */\n      0x00\n        /* \"#utility.yul\":15514:15520   */\n      dup3\n        /* \"#utility.yul\":15510:15524   */\n      add\n        /* \"#utility.yul\":15503:15561   */\n      mstore\n        /* \"#utility.yul\":15595:15605   */\n      0x7769746864726177000000000000000000000000000000000000000000000000\n        /* \"#utility.yul\":15590:15592   */\n      0x20\n        /* \"#utility.yul\":15582:15588   */\n      dup3\n        /* \"#utility.yul\":15578:15593   */\n      add\n        /* \"#utility.yul\":15571:15606   */\n      mstore\n        /* \"#utility.yul\":15386:15613   */\n      pop\n      jump\t// out\n        /* \"#utility.yul\":15619:15985   */\n    tag_183:\n        /* \"#utility.yul\":15761:15764   */\n      0x00\n        /* \"#utility.yul\":15782:15849   */\n      tag_367\n        /* \"#utility.yul\":15846:15848   */\n      0x28\n        /* \"#utility.yul\":15841:15844   */\n      dup4\n        /* \"#utility.yul\":15782:15849   */\n      tag_157\n      jump\t// in\n    tag_367:\n        /* \"#utility.yul\":15775:15849   */\n      swap2\n      pop\n        /* \"#utility.yul\":15858:15951   */\n      tag_368\n        /* \"#utility.yul\":15947:15950   */\n      dup3\n        /* \"#utility.yul\":15858:15951   */\n      tag_182\n      jump\t// in\n    tag_368:\n        /* \"#utility.yul\":15976:15978   */\n      0x40\n        /* \"#utility.yul\":15971:15974   */\n      dup3\n        /* \"#utility.yul\":15967:15979   */\n      add\n        /* \"#utility.yul\":15960:15979   */\n      swap1\n      pop\n        /* \"#utility.yul\":15619:15985   */\n      swap2\n      swap1\n      pop\n      jump\t// out\n        /* \"#utility.yul\":15991:16410   */\n    tag_57:\n        /* \"#utility.yul\":16157:16161   */\n      0x00\n        /* \"#utility.yul\":16195:16197   */\n      0x20\n        /* \"#utility.yul\":16184:16193   */\n      dup3\n        /* \"#utility.yul\":16180:16198   */\n      add\n        /* \"#utility.yul\":16172:16198   */\n      swap1\n      pop\n        /* \"#utility.yul\":16244:16253   */\n      dup2\n        /* \"#utility.yul\":16238:16242   */\n      dup2\n        /* \"#utility.yul\":16234:16254   */\n      sub\n        /* \"#utility.yul\":16230:16231   */\n      0x00\n        /* \"#utility.yul\":16219:16228   */\n      dup4\n        /* \"#utility.yul\":16215:16232   */\n      add\n        /* \"#utility.yul\":16208:16255   */\n      mstore\n        /* \"#utility.yul\":16272:16403   */\n      tag_370\n        /* \"#utility.yul\":16398:16402   */\n      dup2\n        /* \"#utility.yul\":16272:16403   */\n      tag_183\n      jump\t// in\n    tag_370:\n        /* \"#utility.yul\":16264:16403   */\n      swap1\n      pop\n        /* \"#utility.yul\":15991:16410   */\n      swap2\n      swap1\n      pop\n      jump\t// out\n        /* \"#utility.yul\":16416:16644   */\n    tag_184:\n        /* \"#utility.yul\":16556:16590   */\n      0x796f7520617265206e6f742061626c6520746f20776974686472617720617420\n        /* \"#utility.yul\":16552:16553   */\n      0x00\n        /* \"#utility.yul\":16544:16550   */\n      dup3\n        /* \"#utility.yul\":16540:16554   */\n      add\n        /* \"#utility.yul\":16533:16591   */\n      mstore\n        /* \"#utility.yul\":16625:16636   */\n      0x746869732074696d650000000000000000000000000000000000000000000000\n        /* \"#utility.yul\":16620:16622   */\n      0x20\n        /* \"#utility.yul\":16612:16618   */\n      dup3\n        /* \"#utility.yul\":16608:16623   */\n      add\n        /* \"#utility.yul\":16601:16637   */\n      mstore\n        /* \"#utility.yul\":16416:16644   */\n      pop\n      jump\t// out\n        /* \"#utility.yul\":16650:17016   */\n    tag_185:\n        /* \"#utility.yul\":16792:16795   */\n      0x00\n        /* \"#utility.yul\":16813:16880   */\n      tag_373\n        /* \"#utility.yul\":16877:16879   */\n      0x29\n        /* \"#utility.yul\":16872:16875   */\n      dup4\n        /* \"#utility.yul\":16813:16880   */\n      tag_157\n      jump\t// in\n    tag_373:\n        /* \"#utility.yul\":16806:16880   */\n      swap2\n      pop\n        /* \"#utility.yul\":16889:16982   */\n      tag_374\n        /* \"#utility.yul\":16978:16981   */\n      dup3\n        /* \"#utility.yul\":16889:16982   */\n      tag_184\n      jump\t// in\n    tag_374:\n        /* \"#utility.yul\":17007:17009   */\n      0x40\n        /* \"#utility.yul\":17002:17005   */\n      dup3\n        /* \"#utility.yul\":16998:17010   */\n      add\n        /* \"#utility.yul\":16991:17010   */\n      swap1\n      pop\n        /* \"#utility.yul\":16650:17016   */\n      swap2\n      swap1\n      pop\n      jump\t// out\n        /* \"#utility.yul\":17022:17441   */\n    tag_63:\n        /* \"#utility.yul\":17188:17192   */\n      0x00\n        /* \"#utility.yul\":17226:17228   */\n      0x20\n        /* \"#utility.yul\":17215:17224   */\n      dup3\n        /* \"#utility.yul\":17211:17229   */\n      add\n        /* \"#utility.yul\":17203:17229   */\n      swap1\n      pop\n        /* \"#utility.yul\":17275:17284   */\n      dup2\n        /* \"#utility.yul\":17269:17273   */\n      dup2\n        /* \"#utility.yul\":17265:17285   */\n      sub\n        /* \"#utility.yul\":17261:17262   */\n      0x00\n        /* \"#utility.yul\":17250:17259   */\n      dup4\n        /* \"#utility.yul\":17246:17263   */\n      add\n        /* \"#utility.yul\":17239:17286   */\n      mstore\n        /* \"#utility.yul\":17303:17434   */\n      tag_376\n        /* \"#utility.yul\":17429:17433   */\n      dup2\n        /* \"#utility.yul\":17303:17434   */\n      tag_185\n      jump\t// in\n    tag_376:\n        /* \"#utility.yul\":17295:17434   */\n      swap1\n      pop\n        /* \"#utility.yul\":17022:17441   */\n      swap2\n      swap1\n      pop\n      jump\t// out\n        /* \"#utility.yul\":17447:17626   */\n    tag_186:\n        /* \"#utility.yul\":17587:17618   */\n      0x796f7520617265206e6f7420726561647920746f207769746864726177000000\n        /* \"#utility.yul\":17583:17584   */\n      0x00\n        /* \"#utility.yul\":17575:17581   */\n      dup3\n        /* \"#utility.yul\":17571:17585   */\n      add\n        /* \"#utility.yul\":17564:17619   */\n      mstore\n        /* \"#utility.yul\":17447:17626   */\n      pop\n      jump\t// out\n        /* \"#utility.yul\":17632:17998   */\n    tag_187:\n        /* \"#utility.yul\":17774:17777   */\n      0x00\n        /* \"#utility.yul\":17795:17862   */\n      tag_379\n        /* \"#utility.yul\":17859:17861   */\n      0x1d\n        /* \"#utility.yul\":17854:17857   */\n      dup4\n        /* \"#utility.yul\":17795:17862   */\n      tag_157\n      jump\t// in\n    tag_379:\n        /* \"#utility.yul\":17788:17862   */\n      swap2\n      pop\n        /* \"#utility.yul\":17871:17964   */\n      tag_380\n        /* \"#utility.yul\":17960:17963   */\n      dup3\n        /* \"#utility.yul\":17871:17964   */\n      tag_186\n      jump\t// in\n    tag_380:\n        /* \"#utility.yul\":17989:17991   */\n      0x20\n        /* \"#utility.yul\":17984:17987   */\n      dup3\n        /* \"#utility.yul\":17980:17992   */\n      add\n        /* \"#utility.yul\":17973:17992   */\n      swap1\n      pop\n        /* \"#utility.yul\":17632:17998   */\n      swap2\n      swap1\n      pop\n      jump\t// out\n        /* \"#utility.yul\":18004:18423   */\n    tag_93:\n        /* \"#utility.yul\":18170:18174   */\n      0x00\n        /* \"#utility.yul\":18208:18210   */\n      0x20\n        /* \"#utility.yul\":18197:18206   */\n      dup3\n        /* \"#utility.yul\":18193:18211   */\n      add\n        /* \"#utility.yul\":18185:18211   */\n      swap1\n      pop\n        /* \"#utility.yul\":18257:18266   */\n      dup2\n        /* \"#utility.yul\":18251:18255   */\n      dup2\n        /* \"#utility.yul\":18247:18267   */\n      sub\n        /* \"#utility.yul\":18243:18244   */\n      0x00\n        /* \"#utility.yul\":18232:18241   */\n      dup4\n        /* \"#utility.yul\":18228:18245   */\n      add\n        /* \"#utility.yul\":18221:18268   */\n      mstore\n        /* \"#utility.yul\":18285:18416   */\n      tag_382\n        /* \"#utility.yul\":18411:18415   */\n      dup2\n        /* \"#utility.yul\":18285:18416   */\n      tag_187\n      jump\t// in\n    tag_382:\n        /* \"#utility.yul\":18277:18416   */\n      swap1\n      pop\n        /* \"#utility.yul\":18004:18423   */\n      swap2\n      swap1\n      pop\n      jump\t// out\n        /* \"#utility.yul\":18429:18609   */\n    tag_188:\n        /* \"#utility.yul\":18477:18554   */\n      0x4e487b7100000000000000000000000000000000000000000000000000000000\n        /* \"#utility.yul\":18474:18475   */\n      0x00\n        /* \"#utility.yul\":18467:18555   */\n      mstore\n        /* \"#utility.yul\":18574:18578   */\n      0x11\n        /* \"#utility.yul\":18571:18572   */\n      0x04\n        /* \"#utility.yul\":18564:18579   */\n      mstore\n        /* \"#utility.yul\":18598:18602   */\n      0x24\n        /* \"#utility.yul\":18595:18596   */\n      0x00\n        /* \"#utility.yul\":18588:18603   */\n      revert\n        /* \"#utility.yul\":18615:18848   */\n    tag_113:\n        /* \"#utility.yul\":18654:18657   */\n      0x00\n        /* \"#utility.yul\":18677:18701   */\n      tag_385\n        /* \"#utility.yul\":18695:18700   */\n      dup3\n        /* \"#utility.yul\":18677:18701   */\n      tag_148\n      jump\t// in\n    tag_385:\n        /* \"#utility.yul\":18668:18701   */\n      swap2\n      pop\n        /* \"#utility.yul\":18723:18789   */\n      0xffffffffffffffffffffffffffffffffffffffffffffffffffffffffffffffff\n        /* \"#utility.yul\":18716:18721   */\n      dup3\n        /* \"#utility.yul\":18713:18790   */\n      sub\n        /* \"#utility.yul\":18710:18813   */\n      tag_386\n      jumpi\n        /* \"#utility.yul\":18793:18811   */\n      tag_387\n      tag_188\n      jump\t// in\n    tag_387:\n        /* \"#utility.yul\":18710:18813   */\n    tag_386:\n        /* \"#utility.yul\":18840:18841   */\n      0x01\n        /* \"#utility.yul\":18833:18838   */\n      dup3\n        /* \"#utility.yul\":18829:18842   */\n      add\n        /* \"#utility.yul\":18822:18842   */\n      swap1\n      pop\n        /* \"#utility.yul\":18615:18848   */\n      swap2\n      swap1\n      pop\n      jump\t// out\n        /* \"#utility.yul\":18854:19045   */\n    tag_126:\n        /* \"#utility.yul\":18894:18897   */\n      0x00\n        /* \"#utility.yul\":18913:18933   */\n      tag_389\n        /* \"#utility.yul\":18931:18932   */\n      dup3\n        /* \"#utility.yul\":18913:18933   */\n      tag_148\n      jump\t// in\n    tag_389:\n        /* \"#utility.yul\":18908:18933   */\n      swap2\n      pop\n        /* \"#utility.yul\":18947:18967   */\n      tag_390\n        /* \"#utility.yul\":18965:18966   */\n      dup4\n        /* \"#utility.yul\":18947:18967   */\n      tag_148\n      jump\t// in\n    tag_390:\n        /* \"#utility.yul\":18942:18967   */\n      swap3\n      pop\n        /* \"#utility.yul\":18990:18991   */\n      dup3\n        /* \"#utility.yul\":18987:18988   */\n      dup3\n        /* \"#utility.yul\":18983:18992   */\n      add\n        /* \"#utility.yul\":18976:18992   */\n      swap1\n      pop\n        /* \"#utility.yul\":19011:19014   */\n      dup1\n        /* \"#utility.yul\":19008:19009   */\n      dup3\n        /* \"#utility.yul\":19005:19015   */\n      gt\n        /* \"#utility.yul\":19002:19038   */\n      iszero\n      tag_391\n      jumpi\n        /* \"#utility.yul\":19018:19036   */\n      tag_392\n      tag_188\n      jump\t// in\n    tag_392:\n        /* \"#utility.yul\":19002:19038   */\n    tag_391:\n        /* \"#utility.yul\":18854:19045   */\n      swap3\n      swap2\n      pop\n      pop\n      jump\t// out\n        /* \"#utility.yul\":19051:19169   */\n    tag_189:\n        /* \"#utility.yul\":19138:19162   */\n      tag_394\n        /* \"#utility.yul\":19156:19161   */\n      dup2\n        /* \"#utility.yul\":19138:19162   */\n      tag_161\n      jump\t// in\n    tag_394:\n        /* \"#utility.yul\":19133:19136   */\n      dup3\n        /* \"#utility.yul\":19126:19163   */\n      mstore\n        /* \"#utility.yul\":19051:19169   */\n      pop\n      pop\n      jump\t// out\n        /* \"#utility.yul\":19175:19617   */\n    tag_129:\n        /* \"#utility.yul\":19324:19328   */\n      0x00\n        /* \"#utility.yul\":19362:19364   */\n      0x60\n        /* \"#utility.yul\":19351:19360   */\n      dup3\n        /* \"#utility.yul\":19347:19365   */\n      add\n        /* \"#utility.yul\":19339:19365   */\n      swap1\n      pop\n        /* \"#utility.yul\":19375:19446   */\n      tag_396\n        /* \"#utility.yul\":19443:19444   */\n      0x00\n        /* \"#utility.yul\":19432:19441   */\n      dup4\n        /* \"#utility.yul\":19428:19445   */\n      add\n        /* \"#utility.yul\":19419:19425   */\n      dup7\n        /* \"#utility.yul\":19375:19446   */\n      tag_189\n      jump\t// in\n    tag_396:\n        /* \"#utility.yul\":19456:19528   */\n      tag_397\n        /* \"#utility.yul\":19524:19526   */\n      0x20\n        /* \"#utility.yul\":19513:19522   */\n      dup4\n        /* \"#utility.yul\":19509:19527   */\n      add\n        /* \"#utility.yul\":19500:19506   */\n      dup6\n        /* \"#utility.yul\":19456:19528   */\n      tag_154\n      jump\t// in\n    tag_397:\n        /* \"#utility.yul\":19538:19610   */\n      tag_398\n        /* \"#utility.yul\":19606:19608   */\n      0x40\n        /* \"#utility.yul\":19595:19604   */\n      dup4\n        /* \"#utility.yul\":19591:19609   */\n      add\n        /* \"#utility.yul\":19582:19588   */\n      dup5\n        /* \"#utility.yul\":19538:19610   */\n      tag_154\n      jump\t// in\n    tag_398:\n        /* \"#utility.yul\":19175:19617   */\n      swap5\n      swap4\n      pop\n      pop\n      pop\n      pop\n      jump\t// out\n\n    auxdata: 0xa2646970667358221220af29c0fb530559e7ec4fcf99746d21f42358a621223df1e6188a28831920ad4464736f6c63430008110033\n}\n",
				"bytecode": {
					"linkReferences": {},
					"object": "608060405234801561001057600080fd5b50336000806101000a81548173ffffffffffffffffffffffffffffffffffffffff021916908373ffffffffffffffffffffffffffffffffffffffff160217905550611496806100606000396000f3fe6080604052600436106100555760003560e01c806331d575c51461005a57806351cff8d914610083578063722713f71461009f5780637285fd3a146100ca578063a9e99ea41461010c578063f340fa0114610149575b600080fd5b34801561006657600080fd5b50610081600480360381019061007c9190610b8b565b610165565b005b61009d60048036038101906100989190610c50565b610314565b005b3480156100ab57600080fd5b506100b4610502565b6040516100c19190610c8c565b60405180910390f35b3480156100d657600080fd5b506100f160048036038101906100ec9190610ca7565b61050a565b60405161010396959493929190610d71565b60405180910390f35b34801561011857600080fd5b50610133600480360381019061012e9190610e1e565b610693565b6040516101409190610e4b565b60405180910390f35b610163600480360381019061015e9190610e1e565b610787565b005b60008054906101000a900473ffffffffffffffffffffffffffffffffffffffff1673ffffffffffffffffffffffffffffffffffffffff163373ffffffffffffffffffffffffffffffffffffffff16146101f3576040517f08c379a00000000000000000000000000000000000000000000000000000000081526004016101ea90610eb2565b60405180910390fd5b60016040518060c001604052808873ffffffffffffffffffffffffffffffffffffffff168152602001878152602001868152602001858152602001848152602001831515815250908060018154018082558091505060019003906000526020600020906006020160009091909190915060008201518160000160006101000a81548173ffffffffffffffffffffffffffffffffffffffff021916908373ffffffffffffffffffffffffffffffffffffffff16021790555060208201518160010190816102bf91906110de565b5060408201518160020190816102d591906110de565b50606082015181600301556080820151816004015560a08201518160050160006101000a81548160ff0219169083151502179055505050505050505050565b600061031f82610793565b905060018181548110610335576103346111b0565b5b906000526020600020906006020160000160009054906101000a900473ffffffffffffffffffffffffffffffffffffffff1673ffffffffffffffffffffffffffffffffffffffff163373ffffffffffffffffffffffffffffffffffffffff16146103d4576040517f08c379a00000000000000000000000000000000000000000000000000000000081526004016103cb90611251565b60405180910390fd5b60011515600182815481106103ec576103eb6111b0565b5b906000526020600020906006020160050160009054906101000a900460ff1615151461044d576040517f08c379a0000000000000000000000000000000000000000000000000000000008152600401610444906112e3565b60405180910390fd5b60018181548110610461576104606111b0565b5b906000526020600020906006020160000160009054906101000a900473ffffffffffffffffffffffffffffffffffffffff1673ffffffffffffffffffffffffffffffffffffffff166108fc600183815481106104c0576104bf6111b0565b5b9060005260206000209060060201600401549081150290604051600060405180830381858888f193505050501580156104fd573d6000803e3d6000fd5b505050565b600047905090565b6001818154811061051a57600080fd5b90600052602060002090600602016000915090508060000160009054906101000a900473ffffffffffffffffffffffffffffffffffffffff169080600101805461056390610f01565b80601f016020809104026020016040519081016040528092919081815260200182805461058f90610f01565b80156105dc5780601f106105b1576101008083540402835291602001916105dc565b820191906000526020600020905b8154815290600101906020018083116105bf57829003601f168201915b5050505050908060020180546105f190610f01565b80601f016020809104026020016040519081016040528092919081815260200182805461061d90610f01565b801561066a5780601f1061063f5761010080835404028352916020019161066a565b820191906000526020600020905b81548152906001019060200180831161064d57829003601f168201915b5050505050908060030154908060040154908060050160009054906101000a900460ff16905086565b60008061069f83610793565b9050600181815481106106b5576106b46111b0565b5b9060005260206000209060060201600301544211610708576040517f08c379a00000000000000000000000000000000000000000000000000000000081526004016106ff9061134f565b60405180910390fd5b6001818154811061071c5761071b6111b0565b5b90600052602060002090600602016003015442111561077c57600180828154811061074a576107496111b0565b5b906000526020600020906006020160050160006101000a81548160ff0219169083151502179055506001915050610782565b60009150505b919050565b61079081610847565b50565b600080600090505b60018054905081101561083c578273ffffffffffffffffffffffffffffffffffffffff16600182815481106107d3576107d26111b0565b5b906000526020600020906006020160000160009054906101000a900473ffffffffffffffffffffffffffffffffffffffff1673ffffffffffffffffffffffffffffffffffffffff16036108295780915050610842565b80806108349061139e565b91505061079b565b50606390505b919050565b60005b600180549050811015610961578173ffffffffffffffffffffffffffffffffffffffff1660018281548110610882576108816111b0565b5b906000526020600020906006020160000160009054906101000a900473ffffffffffffffffffffffffffffffffffffffff1673ffffffffffffffffffffffffffffffffffffffff160361094e5734600182815481106108e4576108e36111b0565b5b9060005260206000209060060201600401600082825461090491906113e6565b925050819055507f5d94d9bb29bad3fb00a180147455e3f0b34f4062ddcd25fcf2a1e3d820079fb88234610936610502565b60405161094593929190611429565b60405180910390a15b80806109599061139e565b91505061084a565b5050565b6000604051905090565b600080fd5b600080fd5b600073ffffffffffffffffffffffffffffffffffffffff82169050919050565b60006109a482610979565b9050919050565b6109b481610999565b81146109bf57600080fd5b50565b6000813590506109d1816109ab565b92915050565b600080fd5b600080fd5b6000601f19601f8301169050919050565b7f4e487b7100000000000000000000000000000000000000000000000000000000600052604160045260246000fd5b610a2a826109e1565b810181811067ffffffffffffffff82111715610a4957610a486109f2565b5b80604052505050565b6000610a5c610965565b9050610a688282610a21565b919050565b600067ffffffffffffffff821115610a8857610a876109f2565b5b610a91826109e1565b9050602081019050919050565b82818337600083830152505050565b6000610ac0610abb84610a6d565b610a52565b905082815260208101848484011115610adc57610adb6109dc565b5b610ae7848285610a9e565b509392505050565b600082601f830112610b0457610b036109d7565b5b8135610b14848260208601610aad565b91505092915050565b6000819050919050565b610b3081610b1d565b8114610b3b57600080fd5b50565b600081359050610b4d81610b27565b92915050565b60008115159050919050565b610b6881610b53565b8114610b7357600080fd5b50565b600081359050610b8581610b5f565b92915050565b60008060008060008060c08789031215610ba857610ba761096f565b5b6000610bb689828a016109c2565b965050602087013567ffffffffffffffff811115610bd757610bd6610974565b5b610be389828a01610aef565b955050604087013567ffffffffffffffff811115610c0457610c03610974565b5b610c1089828a01610aef565b9450506060610c2189828a01610b3e565b9350506080610c3289828a01610b3e565b92505060a0610c4389828a01610b76565b9150509295509295509295565b600060208284031215610c6657610c6561096f565b5b6000610c74848285016109c2565b91505092915050565b610c8681610b1d565b82525050565b6000602082019050610ca16000830184610c7d565b92915050565b600060208284031215610cbd57610cbc61096f565b5b6000610ccb84828501610b3e565b91505092915050565b610cdd81610999565b82525050565b600081519050919050565b600082825260208201905092915050565b60005b83811015610d1d578082015181840152602081019050610d02565b60008484015250505050565b6000610d3482610ce3565b610d3e8185610cee565b9350610d4e818560208601610cff565b610d57816109e1565b840191505092915050565b610d6b81610b53565b82525050565b600060c082019050610d866000830189610cd4565b8181036020830152610d988188610d29565b90508181036040830152610dac8187610d29565b9050610dbb6060830186610c7d565b610dc86080830185610c7d565b610dd560a0830184610d62565b979650505050505050565b6000610deb82610979565b9050919050565b610dfb81610de0565b8114610e0657600080fd5b50565b600081359050610e1881610df2565b92915050565b600060208284031215610e3457610e3361096f565b5b6000610e4284828501610e09565b91505092915050565b6000602082019050610e606000830184610d62565b92915050565b7f6f6e6c79206f776e65722063616e20616464206b696473000000000000000000600082015250565b6000610e9c601783610cee565b9150610ea782610e66565b602082019050919050565b60006020820190508181036000830152610ecb81610e8f565b9050919050565b7f4e487b7100000000000000000000000000000000000000000000000000000000600052602260045260246000fd5b60006002820490506001821680610f1957607f821691505b602082108103610f2c57610f2b610ed2565b5b50919050565b60008190508160005260206000209050919050565b60006020601f8301049050919050565b600082821b905092915050565b600060088302610f947fffffffffffffffffffffffffffffffffffffffffffffffffffffffffffffffff82610f57565b610f9e8683610f57565b95508019841693508086168417925050509392505050565b6000819050919050565b6000610fdb610fd6610fd184610b1d565b610fb6565b610b1d565b9050919050565b6000819050919050565b610ff583610fc0565b61100961100182610fe2565b848454610f64565b825550505050565b600090565b61101e611011565b611029818484610fec565b505050565b5b8181101561104d57611042600082611016565b60018101905061102f565b5050565b601f8211156110925761106381610f32565b61106c84610f47565b8101602085101561107b578190505b61108f61108785610f47565b83018261102e565b50505b505050565b600082821c905092915050565b60006110b560001984600802611097565b1980831691505092915050565b60006110ce83836110a4565b9150826002028217905092915050565b6110e782610ce3565b67ffffffffffffffff811115611100576110ff6109f2565b5b61110a8254610f01565b611115828285611051565b600060209050601f8311600181146111485760008415611136578287015190505b61114085826110c2565b8655506111a8565b601f19841661115686610f32565b60005b8281101561117e57848901518255600182019150602085019450602081019050611159565b8683101561119b5784890151611197601f8916826110a4565b8355505b6001600288020188555050505b505050505050565b7f4e487b7100000000000000000000000000000000000000000000000000000000600052603260045260246000fd5b7f796f7520617265206e6f742074686520726967687466756c206b696420746f2060008201527f7769746864726177000000000000000000000000000000000000000000000000602082015250565b600061123b602883610cee565b9150611246826111df565b604082019050919050565b6000602082019050818103600083015261126a8161122e565b9050919050565b7f796f7520617265206e6f742061626c6520746f2077697468647261772061742060008201527f746869732074696d650000000000000000000000000000000000000000000000602082015250565b60006112cd602983610cee565b91506112d882611271565b604082019050919050565b600060208201905081810360008301526112fc816112c0565b9050919050565b7f796f7520617265206e6f7420726561647920746f207769746864726177000000600082015250565b6000611339601d83610cee565b915061134482611303565b602082019050919050565b600060208201905081810360008301526113688161132c565b9050919050565b7f4e487b7100000000000000000000000000000000000000000000000000000000600052601160045260246000fd5b60006113a982610b1d565b91507fffffffffffffffffffffffffffffffffffffffffffffffffffffffffffffffff82036113db576113da61136f565b5b600182019050919050565b60006113f182610b1d565b91506113fc83610b1d565b92508282019050808211156114145761141361136f565b5b92915050565b61142381610de0565b82525050565b600060608201905061143e600083018661141a565b61144b6020830185610c7d565b6114586040830184610c7d565b94935050505056fea2646970667358221220af29c0fb530559e7ec4fcf99746d21f42358a621223df1e6188a28831920ad4464736f6c63430008110033",
					"opcodes": "PUSH1 0x80 PUSH1 0x40 MSTORE CALLVALUE DUP1 ISZERO PUSH2 0x10 JUMPI PUSH1 0x0 DUP1 REVERT JUMPDEST POP CALLER PUSH1 0x0 DUP1 PUSH2 0x100 EXP DUP2 SLOAD DUP2 PUSH20 0xFFFFFFFFFFFFFFFFFFFFFFFFFFFFFFFFFFFFFFFF MUL NOT AND SWAP1 DUP4 PUSH20 0xFFFFFFFFFFFFFFFFFFFFFFFFFFFFFFFFFFFFFFFF AND MUL OR SWAP1 SSTORE POP PUSH2 0x1496 DUP1 PUSH2 0x60 PUSH1 0x0 CODECOPY PUSH1 0x0 RETURN INVALID PUSH1 0x80 PUSH1 0x40 MSTORE PUSH1 0x4 CALLDATASIZE LT PUSH2 0x55 JUMPI PUSH1 0x0 CALLDATALOAD PUSH1 0xE0 SHR DUP1 PUSH4 0x31D575C5 EQ PUSH2 0x5A JUMPI DUP1 PUSH4 0x51CFF8D9 EQ PUSH2 0x83 JUMPI DUP1 PUSH4 0x722713F7 EQ PUSH2 0x9F JUMPI DUP1 PUSH4 0x7285FD3A EQ PUSH2 0xCA JUMPI DUP1 PUSH4 0xA9E99EA4 EQ PUSH2 0x10C JUMPI DUP1 PUSH4 0xF340FA01 EQ PUSH2 0x149 JUMPI JUMPDEST PUSH1 0x0 DUP1 REVERT JUMPDEST CALLVALUE DUP1 ISZERO PUSH2 0x66 JUMPI PUSH1 0x0 DUP1 REVERT JUMPDEST POP PUSH2 0x81 PUSH1 0x4 DUP1 CALLDATASIZE SUB DUP2 ADD SWAP1 PUSH2 0x7C SWAP2 SWAP1 PUSH2 0xB8B JUMP JUMPDEST PUSH2 0x165 JUMP JUMPDEST STOP JUMPDEST PUSH2 0x9D PUSH1 0x4 DUP1 CALLDATASIZE SUB DUP2 ADD SWAP1 PUSH2 0x98 SWAP2 SWAP1 PUSH2 0xC50 JUMP JUMPDEST PUSH2 0x314 JUMP JUMPDEST STOP JUMPDEST CALLVALUE DUP1 ISZERO PUSH2 0xAB JUMPI PUSH1 0x0 DUP1 REVERT JUMPDEST POP PUSH2 0xB4 PUSH2 0x502 JUMP JUMPDEST PUSH1 0x40 MLOAD PUSH2 0xC1 SWAP2 SWAP1 PUSH2 0xC8C JUMP JUMPDEST PUSH1 0x40 MLOAD DUP1 SWAP2 SUB SWAP1 RETURN JUMPDEST CALLVALUE DUP1 ISZERO PUSH2 0xD6 JUMPI PUSH1 0x0 DUP1 REVERT JUMPDEST POP PUSH2 0xF1 PUSH1 0x4 DUP1 CALLDATASIZE SUB DUP2 ADD SWAP1 PUSH2 0xEC SWAP2 SWAP1 PUSH2 0xCA7 JUMP JUMPDEST PUSH2 0x50A JUMP JUMPDEST PUSH1 0x40 MLOAD PUSH2 0x103 SWAP7 SWAP6 SWAP5 SWAP4 SWAP3 SWAP2 SWAP1 PUSH2 0xD71 JUMP JUMPDEST PUSH1 0x40 MLOAD DUP1 SWAP2 SUB SWAP1 RETURN JUMPDEST CALLVALUE DUP1 ISZERO PUSH2 0x118 JUMPI PUSH1 0x0 DUP1 REVERT JUMPDEST POP PUSH2 0x133 PUSH1 0x4 DUP1 CALLDATASIZE SUB DUP2 ADD SWAP1 PUSH2 0x12E SWAP2 SWAP1 PUSH2 0xE1E JUMP JUMPDEST PUSH2 0x693 JUMP JUMPDEST PUSH1 0x40 MLOAD PUSH2 0x140 SWAP2 SWAP1 PUSH2 0xE4B JUMP JUMPDEST PUSH1 0x40 MLOAD DUP1 SWAP2 SUB SWAP1 RETURN JUMPDEST PUSH2 0x163 PUSH1 0x4 DUP1 CALLDATASIZE SUB DUP2 ADD SWAP1 PUSH2 0x15E SWAP2 SWAP1 PUSH2 0xE1E JUMP JUMPDEST PUSH2 0x787 JUMP JUMPDEST STOP JUMPDEST PUSH1 0x0 DUP1 SLOAD SWAP1 PUSH2 0x100 EXP SWAP1 DIV PUSH20 0xFFFFFFFFFFFFFFFFFFFFFFFFFFFFFFFFFFFFFFFF AND PUSH20 0xFFFFFFFFFFFFFFFFFFFFFFFFFFFFFFFFFFFFFFFF AND CALLER PUSH20 0xFFFFFFFFFFFFFFFFFFFFFFFFFFFFFFFFFFFFFFFF AND EQ PUSH2 0x1F3 JUMPI PUSH1 0x40 MLOAD PUSH32 0x8C379A000000000000000000000000000000000000000000000000000000000 DUP2 MSTORE PUSH1 0x4 ADD PUSH2 0x1EA SWAP1 PUSH2 0xEB2 JUMP JUMPDEST PUSH1 0x40 MLOAD DUP1 SWAP2 SUB SWAP1 REVERT JUMPDEST PUSH1 0x1 PUSH1 0x40 MLOAD DUP1 PUSH1 0xC0 ADD PUSH1 0x40 MSTORE DUP1 DUP9 PUSH20 0xFFFFFFFFFFFFFFFFFFFFFFFFFFFFFFFFFFFFFFFF AND DUP2 MSTORE PUSH1 0x20 ADD DUP8 DUP2 MSTORE PUSH1 0x20 ADD DUP7 DUP2 MSTORE PUSH1 0x20 ADD DUP6 DUP2 MSTORE PUSH1 0x20 ADD DUP5 DUP2 MSTORE PUSH1 0x20 ADD DUP4 ISZERO ISZERO DUP2 MSTORE POP SWAP1 DUP1 PUSH1 0x1 DUP2 SLOAD ADD DUP1 DUP3 SSTORE DUP1 SWAP2 POP POP PUSH1 0x1 SWAP1 SUB SWAP1 PUSH1 0x0 MSTORE PUSH1 0x20 PUSH1 0x0 KECCAK256 SWAP1 PUSH1 0x6 MUL ADD PUSH1 0x0 SWAP1 SWAP2 SWAP1 SWAP2 SWAP1 SWAP2 POP PUSH1 0x0 DUP3 ADD MLOAD DUP2 PUSH1 0x0 ADD PUSH1 0x0 PUSH2 0x100 EXP DUP2 SLOAD DUP2 PUSH20 0xFFFFFFFFFFFFFFFFFFFFFFFFFFFFFFFFFFFFFFFF MUL NOT AND SWAP1 DUP4 PUSH20 0xFFFFFFFFFFFFFFFFFFFFFFFFFFFFFFFFFFFFFFFF AND MUL OR SWAP1 SSTORE POP PUSH1 0x20 DUP3 ADD MLOAD DUP2 PUSH1 0x1 ADD SWAP1 DUP2 PUSH2 0x2BF SWAP2 SWAP1 PUSH2 0x10DE JUMP JUMPDEST POP PUSH1 0x40 DUP3 ADD MLOAD DUP2 PUSH1 0x2 ADD SWAP1 DUP2 PUSH2 0x2D5 SWAP2 SWAP1 PUSH2 0x10DE JUMP JUMPDEST POP PUSH1 0x60 DUP3 ADD MLOAD DUP2 PUSH1 0x3 ADD SSTORE PUSH1 0x80 DUP3 ADD MLOAD DUP2 PUSH1 0x4 ADD SSTORE PUSH1 0xA0 DUP3 ADD MLOAD DUP2 PUSH1 0x5 ADD PUSH1 0x0 PUSH2 0x100 EXP DUP2 SLOAD DUP2 PUSH1 0xFF MUL NOT AND SWAP1 DUP4 ISZERO ISZERO MUL OR SWAP1 SSTORE POP POP POP POP POP POP POP POP POP JUMP JUMPDEST PUSH1 0x0 PUSH2 0x31F DUP3 PUSH2 0x793 JUMP JUMPDEST SWAP1 POP PUSH1 0x1 DUP2 DUP2 SLOAD DUP2 LT PUSH2 0x335 JUMPI PUSH2 0x334 PUSH2 0x11B0 JUMP JUMPDEST JUMPDEST SWAP1 PUSH1 0x0 MSTORE PUSH1 0x20 PUSH1 0x0 KECCAK256 SWAP1 PUSH1 0x6 MUL ADD PUSH1 0x0 ADD PUSH1 0x0 SWAP1 SLOAD SWAP1 PUSH2 0x100 EXP SWAP1 DIV PUSH20 0xFFFFFFFFFFFFFFFFFFFFFFFFFFFFFFFFFFFFFFFF AND PUSH20 0xFFFFFFFFFFFFFFFFFFFFFFFFFFFFFFFFFFFFFFFF AND CALLER PUSH20 0xFFFFFFFFFFFFFFFFFFFFFFFFFFFFFFFFFFFFFFFF AND EQ PUSH2 0x3D4 JUMPI PUSH1 0x40 MLOAD PUSH32 0x8C379A000000000000000000000000000000000000000000000000000000000 DUP2 MSTORE PUSH1 0x4 ADD PUSH2 0x3CB SWAP1 PUSH2 0x1251 JUMP JUMPDEST PUSH1 0x40 MLOAD DUP1 SWAP2 SUB SWAP1 REVERT JUMPDEST PUSH1 0x1 ISZERO ISZERO PUSH1 0x1 DUP3 DUP2 SLOAD DUP2 LT PUSH2 0x3EC JUMPI PUSH2 0x3EB PUSH2 0x11B0 JUMP JUMPDEST JUMPDEST SWAP1 PUSH1 0x0 MSTORE PUSH1 0x20 PUSH1 0x0 KECCAK256 SWAP1 PUSH1 0x6 MUL ADD PUSH1 0x5 ADD PUSH1 0x0 SWAP1 SLOAD SWAP1 PUSH2 0x100 EXP SWAP1 DIV PUSH1 0xFF AND ISZERO ISZERO EQ PUSH2 0x44D JUMPI PUSH1 0x40 MLOAD PUSH32 0x8C379A000000000000000000000000000000000000000000000000000000000 DUP2 MSTORE PUSH1 0x4 ADD PUSH2 0x444 SWAP1 PUSH2 0x12E3 JUMP JUMPDEST PUSH1 0x40 MLOAD DUP1 SWAP2 SUB SWAP1 REVERT JUMPDEST PUSH1 0x1 DUP2 DUP2 SLOAD DUP2 LT PUSH2 0x461 JUMPI PUSH2 0x460 PUSH2 0x11B0 JUMP JUMPDEST JUMPDEST SWAP1 PUSH1 0x0 MSTORE PUSH1 0x20 PUSH1 0x0 KECCAK256 SWAP1 PUSH1 0x6 MUL ADD PUSH1 0x0 ADD PUSH1 0x0 SWAP1 SLOAD SWAP1 PUSH2 0x100 EXP SWAP1 DIV PUSH20 0xFFFFFFFFFFFFFFFFFFFFFFFFFFFFFFFFFFFFFFFF AND PUSH20 0xFFFFFFFFFFFFFFFFFFFFFFFFFFFFFFFFFFFFFFFF AND PUSH2 0x8FC PUSH1 0x1 DUP4 DUP2 SLOAD DUP2 LT PUSH2 0x4C0 JUMPI PUSH2 0x4BF PUSH2 0x11B0 JUMP JUMPDEST JUMPDEST SWAP1 PUSH1 0x0 MSTORE PUSH1 0x20 PUSH1 0x0 KECCAK256 SWAP1 PUSH1 0x6 MUL ADD PUSH1 0x4 ADD SLOAD SWAP1 DUP2 ISZERO MUL SWAP1 PUSH1 0x40 MLOAD PUSH1 0x0 PUSH1 0x40 MLOAD DUP1 DUP4 SUB DUP2 DUP6 DUP9 DUP9 CALL SWAP4 POP POP POP POP ISZERO DUP1 ISZERO PUSH2 0x4FD JUMPI RETURNDATASIZE PUSH1 0x0 DUP1 RETURNDATACOPY RETURNDATASIZE PUSH1 0x0 REVERT JUMPDEST POP POP POP JUMP JUMPDEST PUSH1 0x0 SELFBALANCE SWAP1 POP SWAP1 JUMP JUMPDEST PUSH1 0x1 DUP2 DUP2 SLOAD DUP2 LT PUSH2 0x51A JUMPI PUSH1 0x0 DUP1 REVERT JUMPDEST SWAP1 PUSH1 0x0 MSTORE PUSH1 0x20 PUSH1 0x0 KECCAK256 SWAP1 PUSH1 0x6 MUL ADD PUSH1 0x0 SWAP2 POP SWAP1 POP DUP1 PUSH1 0x0 ADD PUSH1 0x0 SWAP1 SLOAD SWAP1 PUSH2 0x100 EXP SWAP1 DIV PUSH20 0xFFFFFFFFFFFFFFFFFFFFFFFFFFFFFFFFFFFFFFFF AND SWAP1 DUP1 PUSH1 0x1 ADD DUP1 SLOAD PUSH2 0x563 SWAP1 PUSH2 0xF01 JUMP JUMPDEST DUP1 PUSH1 0x1F ADD PUSH1 0x20 DUP1 SWAP2 DIV MUL PUSH1 0x20 ADD PUSH1 0x40 MLOAD SWAP1 DUP2 ADD PUSH1 0x40 MSTORE DUP1 SWAP3 SWAP2 SWAP1 DUP2 DUP2 MSTORE PUSH1 0x20 ADD DUP3 DUP1 SLOAD PUSH2 0x58F SWAP1 PUSH2 0xF01 JUMP JUMPDEST DUP1 ISZERO PUSH2 0x5DC JUMPI DUP1 PUSH1 0x1F LT PUSH2 0x5B1 JUMPI PUSH2 0x100 DUP1 DUP4 SLOAD DIV MUL DUP4 MSTORE SWAP2 PUSH1 0x20 ADD SWAP2 PUSH2 0x5DC JUMP JUMPDEST DUP3 ADD SWAP2 SWAP1 PUSH1 0x0 MSTORE PUSH1 0x20 PUSH1 0x0 KECCAK256 SWAP1 JUMPDEST DUP2 SLOAD DUP2 MSTORE SWAP1 PUSH1 0x1 ADD SWAP1 PUSH1 0x20 ADD DUP1 DUP4 GT PUSH2 0x5BF JUMPI DUP3 SWAP1 SUB PUSH1 0x1F AND DUP3 ADD SWAP2 JUMPDEST POP POP POP POP POP SWAP1 DUP1 PUSH1 0x2 ADD DUP1 SLOAD PUSH2 0x5F1 SWAP1 PUSH2 0xF01 JUMP JUMPDEST DUP1 PUSH1 0x1F ADD PUSH1 0x20 DUP1 SWAP2 DIV MUL PUSH1 0x20 ADD PUSH1 0x40 MLOAD SWAP1 DUP2 ADD PUSH1 0x40 MSTORE DUP1 SWAP3 SWAP2 SWAP1 DUP2 DUP2 MSTORE PUSH1 0x20 ADD DUP3 DUP1 SLOAD PUSH2 0x61D SWAP1 PUSH2 0xF01 JUMP JUMPDEST DUP1 ISZERO PUSH2 0x66A JUMPI DUP1 PUSH1 0x1F LT PUSH2 0x63F JUMPI PUSH2 0x100 DUP1 DUP4 SLOAD DIV MUL DUP4 MSTORE SWAP2 PUSH1 0x20 ADD SWAP2 PUSH2 0x66A JUMP JUMPDEST DUP3 ADD SWAP2 SWAP1 PUSH1 0x0 MSTORE PUSH1 0x20 PUSH1 0x0 KECCAK256 SWAP1 JUMPDEST DUP2 SLOAD DUP2 MSTORE SWAP1 PUSH1 0x1 ADD SWAP1 PUSH1 0x20 ADD DUP1 DUP4 GT PUSH2 0x64D JUMPI DUP3 SWAP1 SUB PUSH1 0x1F AND DUP3 ADD SWAP2 JUMPDEST POP POP POP POP POP SWAP1 DUP1 PUSH1 0x3 ADD SLOAD SWAP1 DUP1 PUSH1 0x4 ADD SLOAD SWAP1 DUP1 PUSH1 0x5 ADD PUSH1 0x0 SWAP1 SLOAD SWAP1 PUSH2 0x100 EXP SWAP1 DIV PUSH1 0xFF AND SWAP1 POP DUP7 JUMP JUMPDEST PUSH1 0x0 DUP1 PUSH2 0x69F DUP4 PUSH2 0x793 JUMP JUMPDEST SWAP1 POP PUSH1 0x1 DUP2 DUP2 SLOAD DUP2 LT PUSH2 0x6B5 JUMPI PUSH2 0x6B4 PUSH2 0x11B0 JUMP JUMPDEST JUMPDEST SWAP1 PUSH1 0x0 MSTORE PUSH1 0x20 PUSH1 0x0 KECCAK256 SWAP1 PUSH1 0x6 MUL ADD PUSH1 0x3 ADD SLOAD TIMESTAMP GT PUSH2 0x708 JUMPI PUSH1 0x40 MLOAD PUSH32 0x8C379A000000000000000000000000000000000000000000000000000000000 DUP2 MSTORE PUSH1 0x4 ADD PUSH2 0x6FF SWAP1 PUSH2 0x134F JUMP JUMPDEST PUSH1 0x40 MLOAD DUP1 SWAP2 SUB SWAP1 REVERT JUMPDEST PUSH1 0x1 DUP2 DUP2 SLOAD DUP2 LT PUSH2 0x71C JUMPI PUSH2 0x71B PUSH2 0x11B0 JUMP JUMPDEST JUMPDEST SWAP1 PUSH1 0x0 MSTORE PUSH1 0x20 PUSH1 0x0 KECCAK256 SWAP1 PUSH1 0x6 MUL ADD PUSH1 0x3 ADD SLOAD TIMESTAMP GT ISZERO PUSH2 0x77C JUMPI PUSH1 0x1 DUP1 DUP3 DUP2 SLOAD DUP2 LT PUSH2 0x74A JUMPI PUSH2 0x749 PUSH2 0x11B0 JUMP JUMPDEST JUMPDEST SWAP1 PUSH1 0x0 MSTORE PUSH1 0x20 PUSH1 0x0 KECCAK256 SWAP1 PUSH1 0x6 MUL ADD PUSH1 0x5 ADD PUSH1 0x0 PUSH2 0x100 EXP DUP2 SLOAD DUP2 PUSH1 0xFF MUL NOT AND SWAP1 DUP4 ISZERO ISZERO MUL OR SWAP1 SSTORE POP PUSH1 0x1 SWAP2 POP POP PUSH2 0x782 JUMP JUMPDEST PUSH1 0x0 SWAP2 POP POP JUMPDEST SWAP2 SWAP1 POP JUMP JUMPDEST PUSH2 0x790 DUP2 PUSH2 0x847 JUMP JUMPDEST POP JUMP JUMPDEST PUSH1 0x0 DUP1 PUSH1 0x0 SWAP1 POP JUMPDEST PUSH1 0x1 DUP1 SLOAD SWAP1 POP DUP2 LT ISZERO PUSH2 0x83C JUMPI DUP3 PUSH20 0xFFFFFFFFFFFFFFFFFFFFFFFFFFFFFFFFFFFFFFFF AND PUSH1 0x1 DUP3 DUP2 SLOAD DUP2 LT PUSH2 0x7D3 JUMPI PUSH2 0x7D2 PUSH2 0x11B0 JUMP JUMPDEST JUMPDEST SWAP1 PUSH1 0x0 MSTORE PUSH1 0x20 PUSH1 0x0 KECCAK256 SWAP1 PUSH1 0x6 MUL ADD PUSH1 0x0 ADD PUSH1 0x0 SWAP1 SLOAD SWAP1 PUSH2 0x100 EXP SWAP1 DIV PUSH20 0xFFFFFFFFFFFFFFFFFFFFFFFFFFFFFFFFFFFFFFFF AND PUSH20 0xFFFFFFFFFFFFFFFFFFFFFFFFFFFFFFFFFFFFFFFF AND SUB PUSH2 0x829 JUMPI DUP1 SWAP2 POP POP PUSH2 0x842 JUMP JUMPDEST DUP1 DUP1 PUSH2 0x834 SWAP1 PUSH2 0x139E JUMP JUMPDEST SWAP2 POP POP PUSH2 0x79B JUMP JUMPDEST POP PUSH1 0x63 SWAP1 POP JUMPDEST SWAP2 SWAP1 POP JUMP JUMPDEST PUSH1 0x0 JUMPDEST PUSH1 0x1 DUP1 SLOAD SWAP1 POP DUP2 LT ISZERO PUSH2 0x961 JUMPI DUP2 PUSH20 0xFFFFFFFFFFFFFFFFFFFFFFFFFFFFFFFFFFFFFFFF AND PUSH1 0x1 DUP3 DUP2 SLOAD DUP2 LT PUSH2 0x882 JUMPI PUSH2 0x881 PUSH2 0x11B0 JUMP JUMPDEST JUMPDEST SWAP1 PUSH1 0x0 MSTORE PUSH1 0x20 PUSH1 0x0 KECCAK256 SWAP1 PUSH1 0x6 MUL ADD PUSH1 0x0 ADD PUSH1 0x0 SWAP1 SLOAD SWAP1 PUSH2 0x100 EXP SWAP1 DIV PUSH20 0xFFFFFFFFFFFFFFFFFFFFFFFFFFFFFFFFFFFFFFFF AND PUSH20 0xFFFFFFFFFFFFFFFFFFFFFFFFFFFFFFFFFFFFFFFF AND SUB PUSH2 0x94E JUMPI CALLVALUE PUSH1 0x1 DUP3 DUP2 SLOAD DUP2 LT PUSH2 0x8E4 JUMPI PUSH2 0x8E3 PUSH2 0x11B0 JUMP JUMPDEST JUMPDEST SWAP1 PUSH1 0x0 MSTORE PUSH1 0x20 PUSH1 0x0 KECCAK256 SWAP1 PUSH1 0x6 MUL ADD PUSH1 0x4 ADD PUSH1 0x0 DUP3 DUP3 SLOAD PUSH2 0x904 SWAP2 SWAP1 PUSH2 0x13E6 JUMP JUMPDEST SWAP3 POP POP DUP2 SWAP1 SSTORE POP PUSH32 0x5D94D9BB29BAD3FB00A180147455E3F0B34F4062DDCD25FCF2A1E3D820079FB8 DUP3 CALLVALUE PUSH2 0x936 PUSH2 0x502 JUMP JUMPDEST PUSH1 0x40 MLOAD PUSH2 0x945 SWAP4 SWAP3 SWAP2 SWAP1 PUSH2 0x1429 JUMP JUMPDEST PUSH1 0x40 MLOAD DUP1 SWAP2 SUB SWAP1 LOG1 JUMPDEST DUP1 DUP1 PUSH2 0x959 SWAP1 PUSH2 0x139E JUMP JUMPDEST SWAP2 POP POP PUSH2 0x84A JUMP JUMPDEST POP POP JUMP JUMPDEST PUSH1 0x0 PUSH1 0x40 MLOAD SWAP1 POP SWAP1 JUMP JUMPDEST PUSH1 0x0 DUP1 REVERT JUMPDEST PUSH1 0x0 DUP1 REVERT JUMPDEST PUSH1 0x0 PUSH20 0xFFFFFFFFFFFFFFFFFFFFFFFFFFFFFFFFFFFFFFFF DUP3 AND SWAP1 POP SWAP2 SWAP1 POP JUMP JUMPDEST PUSH1 0x0 PUSH2 0x9A4 DUP3 PUSH2 0x979 JUMP JUMPDEST SWAP1 POP SWAP2 SWAP1 POP JUMP JUMPDEST PUSH2 0x9B4 DUP2 PUSH2 0x999 JUMP JUMPDEST DUP2 EQ PUSH2 0x9BF JUMPI PUSH1 0x0 DUP1 REVERT JUMPDEST POP JUMP JUMPDEST PUSH1 0x0 DUP2 CALLDATALOAD SWAP1 POP PUSH2 0x9D1 DUP2 PUSH2 0x9AB JUMP JUMPDEST SWAP3 SWAP2 POP POP JUMP JUMPDEST PUSH1 0x0 DUP1 REVERT JUMPDEST PUSH1 0x0 DUP1 REVERT JUMPDEST PUSH1 0x0 PUSH1 0x1F NOT PUSH1 0x1F DUP4 ADD AND SWAP1 POP SWAP2 SWAP1 POP JUMP JUMPDEST PUSH32 0x4E487B7100000000000000000000000000000000000000000000000000000000 PUSH1 0x0 MSTORE PUSH1 0x41 PUSH1 0x4 MSTORE PUSH1 0x24 PUSH1 0x0 REVERT JUMPDEST PUSH2 0xA2A DUP3 PUSH2 0x9E1 JUMP JUMPDEST DUP2 ADD DUP2 DUP2 LT PUSH8 0xFFFFFFFFFFFFFFFF DUP3 GT OR ISZERO PUSH2 0xA49 JUMPI PUSH2 0xA48 PUSH2 0x9F2 JUMP JUMPDEST JUMPDEST DUP1 PUSH1 0x40 MSTORE POP POP POP JUMP JUMPDEST PUSH1 0x0 PUSH2 0xA5C PUSH2 0x965 JUMP JUMPDEST SWAP1 POP PUSH2 0xA68 DUP3 DUP3 PUSH2 0xA21 JUMP JUMPDEST SWAP2 SWAP1 POP JUMP JUMPDEST PUSH1 0x0 PUSH8 0xFFFFFFFFFFFFFFFF DUP3 GT ISZERO PUSH2 0xA88 JUMPI PUSH2 0xA87 PUSH2 0x9F2 JUMP JUMPDEST JUMPDEST PUSH2 0xA91 DUP3 PUSH2 0x9E1 JUMP JUMPDEST SWAP1 POP PUSH1 0x20 DUP2 ADD SWAP1 POP SWAP2 SWAP1 POP JUMP JUMPDEST DUP3 DUP2 DUP4 CALLDATACOPY PUSH1 0x0 DUP4 DUP4 ADD MSTORE POP POP POP JUMP JUMPDEST PUSH1 0x0 PUSH2 0xAC0 PUSH2 0xABB DUP5 PUSH2 0xA6D JUMP JUMPDEST PUSH2 0xA52 JUMP JUMPDEST SWAP1 POP DUP3 DUP2 MSTORE PUSH1 0x20 DUP2 ADD DUP5 DUP5 DUP5 ADD GT ISZERO PUSH2 0xADC JUMPI PUSH2 0xADB PUSH2 0x9DC JUMP JUMPDEST JUMPDEST PUSH2 0xAE7 DUP5 DUP3 DUP6 PUSH2 0xA9E JUMP JUMPDEST POP SWAP4 SWAP3 POP POP POP JUMP JUMPDEST PUSH1 0x0 DUP3 PUSH1 0x1F DUP4 ADD SLT PUSH2 0xB04 JUMPI PUSH2 0xB03 PUSH2 0x9D7 JUMP JUMPDEST JUMPDEST DUP2 CALLDATALOAD PUSH2 0xB14 DUP5 DUP3 PUSH1 0x20 DUP7 ADD PUSH2 0xAAD JUMP JUMPDEST SWAP2 POP POP SWAP3 SWAP2 POP POP JUMP JUMPDEST PUSH1 0x0 DUP2 SWAP1 POP SWAP2 SWAP1 POP JUMP JUMPDEST PUSH2 0xB30 DUP2 PUSH2 0xB1D JUMP JUMPDEST DUP2 EQ PUSH2 0xB3B JUMPI PUSH1 0x0 DUP1 REVERT JUMPDEST POP JUMP JUMPDEST PUSH1 0x0 DUP2 CALLDATALOAD SWAP1 POP PUSH2 0xB4D DUP2 PUSH2 0xB27 JUMP JUMPDEST SWAP3 SWAP2 POP POP JUMP JUMPDEST PUSH1 0x0 DUP2 ISZERO ISZERO SWAP1 POP SWAP2 SWAP1 POP JUMP JUMPDEST PUSH2 0xB68 DUP2 PUSH2 0xB53 JUMP JUMPDEST DUP2 EQ PUSH2 0xB73 JUMPI PUSH1 0x0 DUP1 REVERT JUMPDEST POP JUMP JUMPDEST PUSH1 0x0 DUP2 CALLDATALOAD SWAP1 POP PUSH2 0xB85 DUP2 PUSH2 0xB5F JUMP JUMPDEST SWAP3 SWAP2 POP POP JUMP JUMPDEST PUSH1 0x0 DUP1 PUSH1 0x0 DUP1 PUSH1 0x0 DUP1 PUSH1 0xC0 DUP8 DUP10 SUB SLT ISZERO PUSH2 0xBA8 JUMPI PUSH2 0xBA7 PUSH2 0x96F JUMP JUMPDEST JUMPDEST PUSH1 0x0 PUSH2 0xBB6 DUP10 DUP3 DUP11 ADD PUSH2 0x9C2 JUMP JUMPDEST SWAP7 POP POP PUSH1 0x20 DUP8 ADD CALLDATALOAD PUSH8 0xFFFFFFFFFFFFFFFF DUP2 GT ISZERO PUSH2 0xBD7 JUMPI PUSH2 0xBD6 PUSH2 0x974 JUMP JUMPDEST JUMPDEST PUSH2 0xBE3 DUP10 DUP3 DUP11 ADD PUSH2 0xAEF JUMP JUMPDEST SWAP6 POP POP PUSH1 0x40 DUP8 ADD CALLDATALOAD PUSH8 0xFFFFFFFFFFFFFFFF DUP2 GT ISZERO PUSH2 0xC04 JUMPI PUSH2 0xC03 PUSH2 0x974 JUMP JUMPDEST JUMPDEST PUSH2 0xC10 DUP10 DUP3 DUP11 ADD PUSH2 0xAEF JUMP JUMPDEST SWAP5 POP POP PUSH1 0x60 PUSH2 0xC21 DUP10 DUP3 DUP11 ADD PUSH2 0xB3E JUMP JUMPDEST SWAP4 POP POP PUSH1 0x80 PUSH2 0xC32 DUP10 DUP3 DUP11 ADD PUSH2 0xB3E JUMP JUMPDEST SWAP3 POP POP PUSH1 0xA0 PUSH2 0xC43 DUP10 DUP3 DUP11 ADD PUSH2 0xB76 JUMP JUMPDEST SWAP2 POP POP SWAP3 SWAP6 POP SWAP3 SWAP6 POP SWAP3 SWAP6 JUMP JUMPDEST PUSH1 0x0 PUSH1 0x20 DUP3 DUP5 SUB SLT ISZERO PUSH2 0xC66 JUMPI PUSH2 0xC65 PUSH2 0x96F JUMP JUMPDEST JUMPDEST PUSH1 0x0 PUSH2 0xC74 DUP5 DUP3 DUP6 ADD PUSH2 0x9C2 JUMP JUMPDEST SWAP2 POP POP SWAP3 SWAP2 POP POP JUMP JUMPDEST PUSH2 0xC86 DUP2 PUSH2 0xB1D JUMP JUMPDEST DUP3 MSTORE POP POP JUMP JUMPDEST PUSH1 0x0 PUSH1 0x20 DUP3 ADD SWAP1 POP PUSH2 0xCA1 PUSH1 0x0 DUP4 ADD DUP5 PUSH2 0xC7D JUMP JUMPDEST SWAP3 SWAP2 POP POP JUMP JUMPDEST PUSH1 0x0 PUSH1 0x20 DUP3 DUP5 SUB SLT ISZERO PUSH2 0xCBD JUMPI PUSH2 0xCBC PUSH2 0x96F JUMP JUMPDEST JUMPDEST PUSH1 0x0 PUSH2 0xCCB DUP5 DUP3 DUP6 ADD PUSH2 0xB3E JUMP JUMPDEST SWAP2 POP POP SWAP3 SWAP2 POP POP JUMP JUMPDEST PUSH2 0xCDD DUP2 PUSH2 0x999 JUMP JUMPDEST DUP3 MSTORE POP POP JUMP JUMPDEST PUSH1 0x0 DUP2 MLOAD SWAP1 POP SWAP2 SWAP1 POP JUMP JUMPDEST PUSH1 0x0 DUP3 DUP3 MSTORE PUSH1 0x20 DUP3 ADD SWAP1 POP SWAP3 SWAP2 POP POP JUMP JUMPDEST PUSH1 0x0 JUMPDEST DUP4 DUP2 LT ISZERO PUSH2 0xD1D JUMPI DUP1 DUP3 ADD MLOAD DUP2 DUP5 ADD MSTORE PUSH1 0x20 DUP2 ADD SWAP1 POP PUSH2 0xD02 JUMP JUMPDEST PUSH1 0x0 DUP5 DUP5 ADD MSTORE POP POP POP POP JUMP JUMPDEST PUSH1 0x0 PUSH2 0xD34 DUP3 PUSH2 0xCE3 JUMP JUMPDEST PUSH2 0xD3E DUP2 DUP6 PUSH2 0xCEE JUMP JUMPDEST SWAP4 POP PUSH2 0xD4E DUP2 DUP6 PUSH1 0x20 DUP7 ADD PUSH2 0xCFF JUMP JUMPDEST PUSH2 0xD57 DUP2 PUSH2 0x9E1 JUMP JUMPDEST DUP5 ADD SWAP2 POP POP SWAP3 SWAP2 POP POP JUMP JUMPDEST PUSH2 0xD6B DUP2 PUSH2 0xB53 JUMP JUMPDEST DUP3 MSTORE POP POP JUMP JUMPDEST PUSH1 0x0 PUSH1 0xC0 DUP3 ADD SWAP1 POP PUSH2 0xD86 PUSH1 0x0 DUP4 ADD DUP10 PUSH2 0xCD4 JUMP JUMPDEST DUP2 DUP2 SUB PUSH1 0x20 DUP4 ADD MSTORE PUSH2 0xD98 DUP2 DUP9 PUSH2 0xD29 JUMP JUMPDEST SWAP1 POP DUP2 DUP2 SUB PUSH1 0x40 DUP4 ADD MSTORE PUSH2 0xDAC DUP2 DUP8 PUSH2 0xD29 JUMP JUMPDEST SWAP1 POP PUSH2 0xDBB PUSH1 0x60 DUP4 ADD DUP7 PUSH2 0xC7D JUMP JUMPDEST PUSH2 0xDC8 PUSH1 0x80 DUP4 ADD DUP6 PUSH2 0xC7D JUMP JUMPDEST PUSH2 0xDD5 PUSH1 0xA0 DUP4 ADD DUP5 PUSH2 0xD62 JUMP JUMPDEST SWAP8 SWAP7 POP POP POP POP POP POP POP JUMP JUMPDEST PUSH1 0x0 PUSH2 0xDEB DUP3 PUSH2 0x979 JUMP JUMPDEST SWAP1 POP SWAP2 SWAP1 POP JUMP JUMPDEST PUSH2 0xDFB DUP2 PUSH2 0xDE0 JUMP JUMPDEST DUP2 EQ PUSH2 0xE06 JUMPI PUSH1 0x0 DUP1 REVERT JUMPDEST POP JUMP JUMPDEST PUSH1 0x0 DUP2 CALLDATALOAD SWAP1 POP PUSH2 0xE18 DUP2 PUSH2 0xDF2 JUMP JUMPDEST SWAP3 SWAP2 POP POP JUMP JUMPDEST PUSH1 0x0 PUSH1 0x20 DUP3 DUP5 SUB SLT ISZERO PUSH2 0xE34 JUMPI PUSH2 0xE33 PUSH2 0x96F JUMP JUMPDEST JUMPDEST PUSH1 0x0 PUSH2 0xE42 DUP5 DUP3 DUP6 ADD PUSH2 0xE09 JUMP JUMPDEST SWAP2 POP POP SWAP3 SWAP2 POP POP JUMP JUMPDEST PUSH1 0x0 PUSH1 0x20 DUP3 ADD SWAP1 POP PUSH2 0xE60 PUSH1 0x0 DUP4 ADD DUP5 PUSH2 0xD62 JUMP JUMPDEST SWAP3 SWAP2 POP POP JUMP JUMPDEST PUSH32 0x6F6E6C79206F776E65722063616E20616464206B696473000000000000000000 PUSH1 0x0 DUP3 ADD MSTORE POP JUMP JUMPDEST PUSH1 0x0 PUSH2 0xE9C PUSH1 0x17 DUP4 PUSH2 0xCEE JUMP JUMPDEST SWAP2 POP PUSH2 0xEA7 DUP3 PUSH2 0xE66 JUMP JUMPDEST PUSH1 0x20 DUP3 ADD SWAP1 POP SWAP2 SWAP1 POP JUMP JUMPDEST PUSH1 0x0 PUSH1 0x20 DUP3 ADD SWAP1 POP DUP2 DUP2 SUB PUSH1 0x0 DUP4 ADD MSTORE PUSH2 0xECB DUP2 PUSH2 0xE8F JUMP JUMPDEST SWAP1 POP SWAP2 SWAP1 POP JUMP JUMPDEST PUSH32 0x4E487B7100000000000000000000000000000000000000000000000000000000 PUSH1 0x0 MSTORE PUSH1 0x22 PUSH1 0x4 MSTORE PUSH1 0x24 PUSH1 0x0 REVERT JUMPDEST PUSH1 0x0 PUSH1 0x2 DUP3 DIV SWAP1 POP PUSH1 0x1 DUP3 AND DUP1 PUSH2 0xF19 JUMPI PUSH1 0x7F DUP3 AND SWAP2 POP JUMPDEST PUSH1 0x20 DUP3 LT DUP2 SUB PUSH2 0xF2C JUMPI PUSH2 0xF2B PUSH2 0xED2 JUMP JUMPDEST JUMPDEST POP SWAP2 SWAP1 POP JUMP JUMPDEST PUSH1 0x0 DUP2 SWAP1 POP DUP2 PUSH1 0x0 MSTORE PUSH1 0x20 PUSH1 0x0 KECCAK256 SWAP1 POP SWAP2 SWAP1 POP JUMP JUMPDEST PUSH1 0x0 PUSH1 0x20 PUSH1 0x1F DUP4 ADD DIV SWAP1 POP SWAP2 SWAP1 POP JUMP JUMPDEST PUSH1 0x0 DUP3 DUP3 SHL SWAP1 POP SWAP3 SWAP2 POP POP JUMP JUMPDEST PUSH1 0x0 PUSH1 0x8 DUP4 MUL PUSH2 0xF94 PUSH32 0xFFFFFFFFFFFFFFFFFFFFFFFFFFFFFFFFFFFFFFFFFFFFFFFFFFFFFFFFFFFFFFFF DUP3 PUSH2 0xF57 JUMP JUMPDEST PUSH2 0xF9E DUP7 DUP4 PUSH2 0xF57 JUMP JUMPDEST SWAP6 POP DUP1 NOT DUP5 AND SWAP4 POP DUP1 DUP7 AND DUP5 OR SWAP3 POP POP POP SWAP4 SWAP3 POP POP POP JUMP JUMPDEST PUSH1 0x0 DUP2 SWAP1 POP SWAP2 SWAP1 POP JUMP JUMPDEST PUSH1 0x0 PUSH2 0xFDB PUSH2 0xFD6 PUSH2 0xFD1 DUP5 PUSH2 0xB1D JUMP JUMPDEST PUSH2 0xFB6 JUMP JUMPDEST PUSH2 0xB1D JUMP JUMPDEST SWAP1 POP SWAP2 SWAP1 POP JUMP JUMPDEST PUSH1 0x0 DUP2 SWAP1 POP SWAP2 SWAP1 POP JUMP JUMPDEST PUSH2 0xFF5 DUP4 PUSH2 0xFC0 JUMP JUMPDEST PUSH2 0x1009 PUSH2 0x1001 DUP3 PUSH2 0xFE2 JUMP JUMPDEST DUP5 DUP5 SLOAD PUSH2 0xF64 JUMP JUMPDEST DUP3 SSTORE POP POP POP POP JUMP JUMPDEST PUSH1 0x0 SWAP1 JUMP JUMPDEST PUSH2 0x101E PUSH2 0x1011 JUMP JUMPDEST PUSH2 0x1029 DUP2 DUP5 DUP5 PUSH2 0xFEC JUMP JUMPDEST POP POP POP JUMP JUMPDEST JUMPDEST DUP2 DUP2 LT ISZERO PUSH2 0x104D JUMPI PUSH2 0x1042 PUSH1 0x0 DUP3 PUSH2 0x1016 JUMP JUMPDEST PUSH1 0x1 DUP2 ADD SWAP1 POP PUSH2 0x102F JUMP JUMPDEST POP POP JUMP JUMPDEST PUSH1 0x1F DUP3 GT ISZERO PUSH2 0x1092 JUMPI PUSH2 0x1063 DUP2 PUSH2 0xF32 JUMP JUMPDEST PUSH2 0x106C DUP5 PUSH2 0xF47 JUMP JUMPDEST DUP2 ADD PUSH1 0x20 DUP6 LT ISZERO PUSH2 0x107B JUMPI DUP2 SWAP1 POP JUMPDEST PUSH2 0x108F PUSH2 0x1087 DUP6 PUSH2 0xF47 JUMP JUMPDEST DUP4 ADD DUP3 PUSH2 0x102E JUMP JUMPDEST POP POP JUMPDEST POP POP POP JUMP JUMPDEST PUSH1 0x0 DUP3 DUP3 SHR SWAP1 POP SWAP3 SWAP2 POP POP JUMP JUMPDEST PUSH1 0x0 PUSH2 0x10B5 PUSH1 0x0 NOT DUP5 PUSH1 0x8 MUL PUSH2 0x1097 JUMP JUMPDEST NOT DUP1 DUP4 AND SWAP2 POP POP SWAP3 SWAP2 POP POP JUMP JUMPDEST PUSH1 0x0 PUSH2 0x10CE DUP4 DUP4 PUSH2 0x10A4 JUMP JUMPDEST SWAP2 POP DUP3 PUSH1 0x2 MUL DUP3 OR SWAP1 POP SWAP3 SWAP2 POP POP JUMP JUMPDEST PUSH2 0x10E7 DUP3 PUSH2 0xCE3 JUMP JUMPDEST PUSH8 0xFFFFFFFFFFFFFFFF DUP2 GT ISZERO PUSH2 0x1100 JUMPI PUSH2 0x10FF PUSH2 0x9F2 JUMP JUMPDEST JUMPDEST PUSH2 0x110A DUP3 SLOAD PUSH2 0xF01 JUMP JUMPDEST PUSH2 0x1115 DUP3 DUP3 DUP6 PUSH2 0x1051 JUMP JUMPDEST PUSH1 0x0 PUSH1 0x20 SWAP1 POP PUSH1 0x1F DUP4 GT PUSH1 0x1 DUP2 EQ PUSH2 0x1148 JUMPI PUSH1 0x0 DUP5 ISZERO PUSH2 0x1136 JUMPI DUP3 DUP8 ADD MLOAD SWAP1 POP JUMPDEST PUSH2 0x1140 DUP6 DUP3 PUSH2 0x10C2 JUMP JUMPDEST DUP7 SSTORE POP PUSH2 0x11A8 JUMP JUMPDEST PUSH1 0x1F NOT DUP5 AND PUSH2 0x1156 DUP7 PUSH2 0xF32 JUMP JUMPDEST PUSH1 0x0 JUMPDEST DUP3 DUP2 LT ISZERO PUSH2 0x117E JUMPI DUP5 DUP10 ADD MLOAD DUP3 SSTORE PUSH1 0x1 DUP3 ADD SWAP2 POP PUSH1 0x20 DUP6 ADD SWAP5 POP PUSH1 0x20 DUP2 ADD SWAP1 POP PUSH2 0x1159 JUMP JUMPDEST DUP7 DUP4 LT ISZERO PUSH2 0x119B JUMPI DUP5 DUP10 ADD MLOAD PUSH2 0x1197 PUSH1 0x1F DUP10 AND DUP3 PUSH2 0x10A4 JUMP JUMPDEST DUP4 SSTORE POP JUMPDEST PUSH1 0x1 PUSH1 0x2 DUP9 MUL ADD DUP9 SSTORE POP POP POP JUMPDEST POP POP POP POP POP POP JUMP JUMPDEST PUSH32 0x4E487B7100000000000000000000000000000000000000000000000000000000 PUSH1 0x0 MSTORE PUSH1 0x32 PUSH1 0x4 MSTORE PUSH1 0x24 PUSH1 0x0 REVERT JUMPDEST PUSH32 0x796F7520617265206E6F742074686520726967687466756C206B696420746F20 PUSH1 0x0 DUP3 ADD MSTORE PUSH32 0x7769746864726177000000000000000000000000000000000000000000000000 PUSH1 0x20 DUP3 ADD MSTORE POP JUMP JUMPDEST PUSH1 0x0 PUSH2 0x123B PUSH1 0x28 DUP4 PUSH2 0xCEE JUMP JUMPDEST SWAP2 POP PUSH2 0x1246 DUP3 PUSH2 0x11DF JUMP JUMPDEST PUSH1 0x40 DUP3 ADD SWAP1 POP SWAP2 SWAP1 POP JUMP JUMPDEST PUSH1 0x0 PUSH1 0x20 DUP3 ADD SWAP1 POP DUP2 DUP2 SUB PUSH1 0x0 DUP4 ADD MSTORE PUSH2 0x126A DUP2 PUSH2 0x122E JUMP JUMPDEST SWAP1 POP SWAP2 SWAP1 POP JUMP JUMPDEST PUSH32 0x796F7520617265206E6F742061626C6520746F20776974686472617720617420 PUSH1 0x0 DUP3 ADD MSTORE PUSH32 0x746869732074696D650000000000000000000000000000000000000000000000 PUSH1 0x20 DUP3 ADD MSTORE POP JUMP JUMPDEST PUSH1 0x0 PUSH2 0x12CD PUSH1 0x29 DUP4 PUSH2 0xCEE JUMP JUMPDEST SWAP2 POP PUSH2 0x12D8 DUP3 PUSH2 0x1271 JUMP JUMPDEST PUSH1 0x40 DUP3 ADD SWAP1 POP SWAP2 SWAP1 POP JUMP JUMPDEST PUSH1 0x0 PUSH1 0x20 DUP3 ADD SWAP1 POP DUP2 DUP2 SUB PUSH1 0x0 DUP4 ADD MSTORE PUSH2 0x12FC DUP2 PUSH2 0x12C0 JUMP JUMPDEST SWAP1 POP SWAP2 SWAP1 POP JUMP JUMPDEST PUSH32 0x796F7520617265206E6F7420726561647920746F207769746864726177000000 PUSH1 0x0 DUP3 ADD MSTORE POP JUMP JUMPDEST PUSH1 0x0 PUSH2 0x1339 PUSH1 0x1D DUP4 PUSH2 0xCEE JUMP JUMPDEST SWAP2 POP PUSH2 0x1344 DUP3 PUSH2 0x1303 JUMP JUMPDEST PUSH1 0x20 DUP3 ADD SWAP1 POP SWAP2 SWAP1 POP JUMP JUMPDEST PUSH1 0x0 PUSH1 0x20 DUP3 ADD SWAP1 POP DUP2 DUP2 SUB PUSH1 0x0 DUP4 ADD MSTORE PUSH2 0x1368 DUP2 PUSH2 0x132C JUMP JUMPDEST SWAP1 POP SWAP2 SWAP1 POP JUMP JUMPDEST PUSH32 0x4E487B7100000000000000000000000000000000000000000000000000000000 PUSH1 0x0 MSTORE PUSH1 0x11 PUSH1 0x4 MSTORE PUSH1 0x24 PUSH1 0x0 REVERT JUMPDEST PUSH1 0x0 PUSH2 0x13A9 DUP3 PUSH2 0xB1D JUMP JUMPDEST SWAP2 POP PUSH32 0xFFFFFFFFFFFFFFFFFFFFFFFFFFFFFFFFFFFFFFFFFFFFFFFFFFFFFFFFFFFFFFFF DUP3 SUB PUSH2 0x13DB JUMPI PUSH2 0x13DA PUSH2 0x136F JUMP JUMPDEST JUMPDEST PUSH1 0x1 DUP3 ADD SWAP1 POP SWAP2 SWAP1 POP JUMP JUMPDEST PUSH1 0x0 PUSH2 0x13F1 DUP3 PUSH2 0xB1D JUMP JUMPDEST SWAP2 POP PUSH2 0x13FC DUP4 PUSH2 0xB1D JUMP JUMPDEST SWAP3 POP DUP3 DUP3 ADD SWAP1 POP DUP1 DUP3 GT ISZERO PUSH2 0x1414 JUMPI PUSH2 0x1413 PUSH2 0x136F JUMP JUMPDEST JUMPDEST SWAP3 SWAP2 POP POP JUMP JUMPDEST PUSH2 0x1423 DUP2 PUSH2 0xDE0 JUMP JUMPDEST DUP3 MSTORE POP POP JUMP JUMPDEST PUSH1 0x0 PUSH1 0x60 DUP3 ADD SWAP1 POP PUSH2 0x143E PUSH1 0x0 DUP4 ADD DUP7 PUSH2 0x141A JUMP JUMPDEST PUSH2 0x144B PUSH1 0x20 DUP4 ADD DUP6 PUSH2 0xC7D JUMP JUMPDEST PUSH2 0x1458 PUSH1 0x40 DUP4 ADD DUP5 PUSH2 0xC7D JUMP JUMPDEST SWAP5 SWAP4 POP POP POP POP JUMP INVALID LOG2 PUSH5 0x6970667358 0x22 SLT KECCAK256 0xAF 0x29 0xC0 0xFB MSTORE8 SDIV MSIZE 0xE7 0xEC 0x4F 0xCF SWAP10 PUSH21 0x6D21F42358A621223DF1E6188A28831920AD446473 PUSH16 0x6C634300081100330000000000000000 "
				},
				"gasEstimates": {
					"creation": {
						"codeDepositCost": "1054000",
						"executionCost": "25360",
						"totalCost": "1079360"
					},
					"external": {
						"addKid(address,string,string,uint256,uint256,bool)": "infinite",
						"avaliableToWithdraw(address)": "infinite",
						"balanceOf()": "361",
						"deposit(address)": "infinite",
						"kids(uint256)": "infinite",
						"withdraw(address)": "infinite"
					},
					"internal": {
						"addToKidsBalance(address)": "infinite",
						"getIndex(address)": "infinite"
					}
				},
				"methodIdentifiers": {
					"addKid(address,string,string,uint256,uint256,bool)": "31d575c5",
					"avaliableToWithdraw(address)": "a9e99ea4",
					"balanceOf()": "722713f7",
					"deposit(address)": "f340fa01",
					"kids(uint256)": "7285fd3a",
					"withdraw(address)": "51cff8d9"
				}
			},
			"storageLayout": {
				"storage": [
					{
						"astId": 3,
						"contract": "AncestorContract.sol:myContract",
						"label": "owner",
						"offset": 0,
						"slot": "0",
						"type": "t_address"
					},
					{
						"astId": 37,
						"contract": "AncestorContract.sol:myContract",
						"label": "kids",
						"offset": 0,
						"slot": "1",
						"type": "t_array(t_struct(kid)33_storage)dyn_storage"
					}
				],
				"types": {
					"t_address": {
						"encoding": "inplace",
						"label": "address",
						"numberOfBytes": "20"
					},
					"t_address_payable": {
						"encoding": "inplace",
						"label": "address payable",
						"numberOfBytes": "20"
					},
					"t_array(t_struct(kid)33_storage)dyn_storage": {
						"base": "t_struct(kid)33_storage",
						"encoding": "dynamic_array",
						"label": "struct myContract.kid[]",
						"numberOfBytes": "32"
					},
					"t_bool": {
						"encoding": "inplace",
						"label": "bool",
						"numberOfBytes": "1"
					},
					"t_string_storage": {
						"encoding": "bytes",
						"label": "string",
						"numberOfBytes": "32"
					},
					"t_struct(kid)33_storage": {
						"encoding": "inplace",
						"label": "struct myContract.kid",
						"members": [
							{
								"astId": 22,
								"contract": "AncestorContract.sol:myContract",
								"label": "walletAddress",
								"offset": 0,
								"slot": "0",
								"type": "t_address_payable"
							},
							{
								"astId": 24,
								"contract": "AncestorContract.sol:myContract",
								"label": "firstname",
								"offset": 0,
								"slot": "1",
								"type": "t_string_storage"
							},
							{
								"astId": 26,
								"contract": "AncestorContract.sol:myContract",
								"label": "lastname",
								"offset": 0,
								"slot": "2",
								"type": "t_string_storage"
							},
							{
								"astId": 28,
								"contract": "AncestorContract.sol:myContract",
								"label": "releaseTime",
								"offset": 0,
								"slot": "3",
								"type": "t_uint256"
							},
							{
								"astId": 30,
								"contract": "AncestorContract.sol:myContract",
								"label": "amount",
								"offset": 0,
								"slot": "4",
								"type": "t_uint256"
							},
							{
								"astId": 32,
								"contract": "AncestorContract.sol:myContract",
								"label": "canwithdraw",
								"offset": 0,
								"slot": "5",
								"type": "t_bool"
							}
						],
						"numberOfBytes": "192"
					},
					"t_uint256": {
						"encoding": "inplace",
						"label": "uint256",
						"numberOfBytes": "32"
					}
				}
			},
			"userdoc": {
				"kind": "user",
				"methods": {},
				"version": 1
			}
		}
	}
}